:020000040800F2
:1060000078460020D5600008BDAF0008F9A9000857
:106010000000000000000000000000000000000080
:10602000000000000000000000000000D3B40008E1
:10603000000000000000000075B1000869C90008F8
:10604000E7600008E7600008E7600008E760000814
:10605000E7600008E7600008E7600008E760000804
:1060600000000000E7600008C9860008D986000823
:10607000E7600008E7600008E760000865CA0008FC
:10608000E7600008E7600008E76000080000000023
:10609000E7600008E7600008E7600008E7600008C4
:1060A000E7600008E7600008E760000875D00008B6
:1060B00085D00008E7600008000000000000000034
:1060C0000348854600F0AAFC00480047FD2E010861
:1060D000784600200448804704480047FEE7FEE772
:1060E000FEE7FEE7FEE7FEE7F5C90008C16000082D
:1060F00030B50B46014600202022012409E00D4660
:10610000D5409D4205D31D469540491B25469540E7
:1061100040191546521E002DF1DC30BD70B500242B
:106120002546002801DA01244042002901DA012530
:106130004942FFF7DDFFAC4200D04042002C00D0C6
:10614000494270BDF0B51FB40646002082B0054636
:106150004024019100901BE0019922460F463046F1
:1061600000F064FB049A059B801A994110D31046F5
:106170001946224600F03CF8361A8F410197224614
:1061800001200021009F00F033F838184D410090A5
:106190002046641E0028DFDC019B00982946324619
:1061A00007B0F0BDF8B500242546002904DA0E46F4
:1061B000012400214042B141002B04DA1E46002395
:1061C00052420125B341FFF7BDFF8C4617461E46DC
:1061D000AC4203D0002540428D41AC46002C02D099
:1061E000002657429E4161463A46334601B0F0BD13
:1061F00010B5202A04DB0146203A9140002010BD52
:10620000914020239C1A0346E3401943904010BD5F
:106210000549064A08685043054A80180860400846
:106220007047014908607047980100206D4EC641D3
:1062300039300000002903DA002340428B4119461F
:10624000704703460B439B0703D009E008C9121FA0
:1062500008C0042AFAD203E00B780370401C491CE2
:10626000521EF9D27047D2B201E00270401C491EA2
:10627000FBD270470022F6E710B513460A460446E3
:106280001946FFF7F0FF204610BD03460A7802705A
:10629000401C491C002AF9D118467047F8B502463F
:1062A0004A40D40F42004B0052085B089A4202D287
:1062B0000246084611464A0023D0C30D4A00DDB20B
:1062C000120EAD1A202D35DA49020126490AF605CB
:1062D0008A19002C00D0524220214F1B1146B94090
:1062E0002A411018C20D9A4221D0002C17D0012D3E
:1062F00008DCDA05801AD20F8019D207DBB200F071
:10630000C1FAF8BDDA05801A012340001B06C01847
:1063100080185A428018CA0F1043490007E0490804
:10632000C2071143DA05801A80194008801800F06E
:10633000A1FAF8BD61000122511A001BF7E7012202
:10634000D2075140AAE70122D2075040A6E74200F7
:1063500005D04200120E52428A4201DB00207047F3
:10636000C905081870470000F0B5074608465840B0
:1063700087B0C00F049048000E46590040084908F5
:10638000BC1A884105D2384631461E4617460B4690
:1063900002465800400810434CD0300D0390400591
:1063A0005900400D490D0590401A0290402872DABC
:1063B00018030121000B090508430190049800927D
:1063C000002805D001995242002088410092019096
:1063D000029840210A1A01990098FFF709FF054623
:1063E0000C466B4607CB00F032FAC0197141039A94
:1063F0000E0D0023D71756401A467A40164344D054
:10640000049A002A2DD0029A012A039A15DC12055B
:10641000C01A914101263605001C7141D20F059E1C
:10642000D2070093019202962A46234600F070FAA2
:1064300007B0F0BD38463146FAE71605224A0F4646
:10644000B218C01AB74101210905001C4F410018BC
:106450007F41114618187941E20F10436D196441CC
:1064600013E0E2076D0815436408C2071443039A5A
:1064700001261205C01A91413605001C7141CE0754
:10648000400830434908C01851412A46234600F0CD
:1064900032FACDE7FFE7049801224000C117121A33
:1064A00000238B4104983146C417381AA141EEE706
:1064B00030B40124E407634030BC55E730B4012414
:1064C000E407614030BC4FE70000E0FFF0B51FB4C7
:1064D00088B00B990998002448400999C00F4900D9
:1064E00049080991C0070B990090490049080B9190
:1064F00009990898A64608431CD00B990A980843A6
:1065000018D0099801244000420D4800410D099817
:1065100024050003000B204309900B980003000B97
:1065200020430B9050181C4940180022019014463B
:10653000104605E0002001460DB0F0BD032801DA49
:10654000034600E003239C46C11A0AAE0AE05F003E
:1065500008ADED5B4F00F75B7D430027AA187C4137
:10656000491C5B1E6145F2DD410004AB5A52210417
:10657000120C0A43240C401C0828DFDB019802900F
:106580000099704601910090059B049A079906981E
:1065900000F0BEF9D0E700000DFCFFFFF0B50C469F
:1065A0005C4085B0E40FE40703944C0000266408C7
:1065B00059009446490802460296224321D0624679
:1065C0000A431ED06200570D4A000E032303550DE7
:1065D000012402462C492405781B1B0B360B40185E
:1065E00023432643614600901C46501AB44103D30E
:1065F0000098401C009002E0921800985B4100282F
:1066000003DA0020014605B0F0BD00200121090594
:106610000746864611E064461D46141BB54106D365
:106620006546521BB341744607430C43A646CD074B
:1066300040084908284392185B4105460D43EAD1BA
:106640001046184313D06046194650407140084325
:1066500006D06046101AB34106D20122002306E09C
:1066600000220123DB0702E00122D24353100098ED
:1066700074460105381C6141029C039D0019694163
:1066800000F039F9BFE70000FD03000070B54B00D2
:106690005B0803430BD04B005C0D0026334665427C
:1066A000B341D417AD1AA34102DB0020014670BDEF
:1066B00012053018514170BDC217C10F504010B5BE
:1066C0004018CA079623002100F0DCF810BD10B571
:1066D00000229623114600F0D5F810BD0EB5C21762
:1066E000C10F5040CA0740180021054B0293019288
:1066F00000910A460B4600F00BF903B000BD000004
:10670000330400000EB505490291002100910A46AC
:106710000B46019100F0FCF803B000BD330400000B
:10672000410040020122400AD205090E80187F294B
:1067300001DA00207047962903DC9622511AC840DE
:10674000704796398840704770B5CD0F4A000903ED
:106750000123090B1B0519430B4BED070024520DB8
:106760009A4201DA002070BD074B34339A4203DCB1
:106770009A1A00F05BF802E00449511888402C4353
:10678000F1D0404270BD0000FF030000CDFBFFFFD1
:106790004A0009030123090B1B051943094B10B5D6
:1067A000520D9A4201DA002010BD064B34339A4252
:1067B00003DC9A1A00F03AF810BD034951188840DA
:1067C00010BD0000FF030000CDFBFFFFC20FD2078A
:1067D000400040080BD0C10D0723DB01C91840025F
:1067E0000905400A1143C2084007114370470020C1
:1067F00001467047CB0FDB07490010B54908024638
:106800000A4307D00A0D07240903E401090B121BF0
:10681000002A01DC002010BDC900440F0C43C10058
:10682000E018D205801800F025F810BD10B5202A18
:1068300004DB0846203AD040002110BD0B46D3406F
:10684000D0402024A21A91400843194610BD10B52B
:10685000202A06DBCB170846203A1041C1170B430C
:1068600006E00B461341D0402024A21A9140084371
:10687000194610BD002904DA401C490001D1400826
:106880004000704770B40024050C05D110240004AA
:1068900002D1002921D01124050E01D100020834B3
:1068A000050F01D10001241D850F01D18000A41C1A
:1068B000002801DB4000641C002908D020252E1B85
:1068C0000D46F540A14000D00121294308430106AF
:1068D0001B1B000ADB1D02D5002070BC7047DB05C6
:1068E000181880180029F8DA401C4900F5D170BC4E
:1068F00040084000704710B5002B08DA0024401C07
:10690000614192185B411A4301D14008400010BD1B
:10691000F0B51FB482B005460C0003D0084606F05F
:10692000D5FD02E006F0D2FD20300246009021465F
:106930002846FFF75DFC049B059A04460F46184362
:106940001143084314D0184610431BD0009840212F
:106950000A1A18460599FFF769FF05460E46009A80
:1069600005990498FFF744FC084305D0012004E092
:106970002046394607B0F0BD0020C11705430E433D
:106980002C43374300990E986305401A7905E40AB1
:1069900000220C43FD0A0A3002D500200146E9E737
:1069A0000105101969410C9C0D9D00196941FFF703
:1069B000A2FFDFE74A0009030123090B1B05194366
:1069C0000A4B10B5520D9A4202DA0020014610BD62
:1069D000064B34339A4203DC9A1AFFF727FF10BDA7
:1069E000034BD218FFF704FC10BD0000FF030000AA
:1069F000CDFBFFFF10B5002904DB0124E407404272
:106A00008C412146002B04DB1C460123DB0752424C
:106A1000A341994200D1904210BD0000064C0125CF
:106A2000064E05E0E36807CC2B430C3C9847103436
:106A3000B442F7D3FFF748FBBCCF0108DCCF010815
:106A4000FEB500231A461B1A8A4103DB00200146CB
:106A500003B0F0BD4A000D0301212D0B0905520DB5
:106A60000D43D10702D100186D41521E5110FF3164
:106A7000FF310131002704463E4638460097019118
:106A80000246012100200905FFF7D0FEC31971411C
:106A9000F818324684468E464A4161462846611AB5
:106AA000904104D36046241A954176461F46241926
:106AB00000986D41401C00903428E1DDF919304602
:106AC0007041091BA84103D20022D243134601E0C2
:106AD0000022134601980105381C7141FFF70BFF96
:106AE000B6E770B58C180578401C6B075B0F01D1B9
:106AF0000378401C2A1106D10278401C03E0067876
:106B00000E70401C491C5B1EF9D12B0705D40023D5
:106B1000521E0DD40B70491CFAE70378401CCB1AA7
:106B2000921C03E01D780D70491C5B1C521EF9D5A8
:106B3000A142D8D3002070BDF0B5002687B03446FE
:106B4000FE480078002808D0FD494879112803D074
:106B50002C20405CC20602D0002007B0F0BDF94FE7
:106B600041093870C2063973520F80077A73800F5B
:106B7000F54DB87328461830069018300590183037
:106B8000049018300390183002901830019018309B
:106B9000009006297ED24B007B449B885B009F447B
:106BA0000500F3005802920329058D06E7A006F0C0
:106BB00053FCFF22E2492D320020564371180A1877
:106BC0003B182032401C527BC0B25A740828F6D3BE
:106BD00000200A183B182032401C527DC0B25A7661
:106BE0000828F6D300200A182032537F3A182032A2
:106BF000401CC0B253700228F5D300200A1820327E
:106C0000D37F3A182032401CC0B2D3710428F5D388
:106C1000D5490020182242435218127D401C1219F7
:106C2000C0B2D4B20528F5D3A41DE5B2002404E017
:106C3000CEA006F011FC641CE4B2AC42F8D3C9A0AB
:106C400006F00AFCCAA006F007FCC749C9A006F076
:106C500003FCC7A006F000FCC349C7A0183106F02A
:106C6000FBFBC3A006F0F8FBBF49C3A0303106F020
:106C7000F3FBBFA006F0F0FBBB49C1A0483106F012
:106C8000EBFBBBA006F0E8FBB749BDA0603106F006
:106C9000E3FB00E076E0B6A006F0DEFBB1A006F074
:106CA000DBFB002404E0B1A006F0D6FB641CE4B2D8
:106CB000AC42F8D3ABA006F0CFFBB3A006F0CCFB00
:106CC000B2A006F0C9FB3978B2A006F0C5FBA8A0B7
:106CD00006F0C2FBB1A006F0BFFB00240726301B64
:106CE000C019417CABA006F0B7FB641CE4B2082CD1
:106CF000F5D39FA006F0B0FBA8A006F0ADFB0024E2
:106D0000301BC019417EA3A006F0A6FB641CE4B2B0
:106D1000082CF5D396A006F09FFBA1A006F09CFBE3
:106D200000240126301BC0192030417899A006F0BC
:106D300093FB641CE4B2022CF4D38DA006F08CFB10
:106D400096A006F089FB00240326301BC0192030D2
:106D5000C17990A006F080FB641CE4B2042CF4D34B
:106D600089A006F079FB7FA006F076FB002404E002
:106D70007EA006F071FB641CE4B2AC42F8D379A0AB
:106D800006F06AFB0120E8E687A006F065FBFF221B
:106D90006B492D320020564371180A182032537B5C
:106DA0003A182032401CC0B2D3720328F5D3002019
:106DB0000A182032137C3A182032401CC0B21371DA
:106DC0000328F5D300200A182032D37C3A18203249
:106DD000401CC0B293730428F5D37A4800680818A1
:106DE0002030C27DBA70007EF870488D0D38C2B276
:106DF000002007E00B1820333D1820355B7E401C37
:106E0000AB74C0B29042F5D35749002078311822B4
:106E100042435218127D401C1219C0B2D4B2072846
:106E2000F5D30834E5B2002404E050A006F014FBCA
:106E3000641CE4B2AC42F8D34AA006F00DFB4CA0AF
:106E400006F00AFB48494BA0783106F005FB48A044
:106E500006F002FB3C494AA0903906F0FDFA44A036
:106E600006F0FAFA384958A0783906F0F5FA40A049
:106E700006F0F2FA344942A0603906F0EDFA3CA07F
:106E800006F0EAFA304951A0483906F0E5FA38A090
:106E900006F0E2FA2C493AA0303906F0DDFA34A0C7
:106EA00006F0DAFA28494BA0183906F0D5FA30A0D6
:106EB00006F0D2FA2BA006F0CFFA002404E02BA0B3
:106EC00006F0CAFA641CE4B2AC42F8D325A006F07E
:106ED000C3FA2DA006F0C0FA397840A006F0BCFA3B
:106EE00023A006F0B9FA29A006F0B6FA002402267B
:106EF000301BC0192030C17A26A006F0ADFA641C00
:106F0000E4B2032CF4D31AA006F0A6FA23A006F0EC
:106F1000A3FA0024301BC019203001791DA006F00F
:106F20009BFA641CE4B2032CF4D311A006F094FA8B
:106F30001AA006F091FA0024032651E0902E0020BA
:106F4000E00100203C2D0020A4BC010823232320C5
:106F50006A6F696E207265717565737420636F6DF9
:106F60006D616E640A00000084BB01082D00000002
:106F70007C000000253673002531387300000000C6
:106F80002531307300000000240000002020202064
:106F900000000000253032580000000020200000D2
:106FA0002020202020200000232323206A6F696EE8
:106FB0002061636365707420636F6D6D616E640A38
:106FC00000000000240000202538730025313273B2
:106FD0000000000025333273000000002536580001
:106FE000301BC0192030817BFE4806F035FA641C46
:106FF000E4B2042CA1D3FCA006F02EFAB978FBA0D1
:1070000006F02AFAF8A006F027FAF978F9A006F0B7
:1070100023FAF5A006F020FA00240F26301BC01931
:107020002030817CEF4806F017FA641CE4B2102C83
:10703000F4D3F2A006F010FAF1A006F00DFA002445
:1070400004E0F0A006F008FA641CE4B2AC42F8D305
:1070500095E6EDA006F000FAFF202D304643F348F8
:107060000021301842187B1820322033491C527BF3
:10707000C9B29A730429F5D302462032517C397182
:10708000CB09DB017B7140230B40BB7120230B40FC
:10709000FB7110230B4009077B73090F3972917C38
:1070A000D27C120289187981002107E0421820322F
:1070B0007B184033127D491C9A70C9B23A7A8A42D1
:1070C000F4D8D1B2D94A34368A18925D7A700A4619
:1070D0000932FA73428D511A0D3939740021042393
:1070E0005B1AD31A7E181B1820332036491C1B7BD1
:1070F000C9B2F3710429F2D3002018214143491980
:10710000097D401C0919C0B2CCB20828F5D3093456
:10711000E6B2002404E0BBA006F09EF9641CE4B2D1
:10712000B442F8D3B6A006F097F9AFA006F094F9F0
:10713000AC48BF49203806F08FF9ABA006F08CF9B7
:10714000A8480699143806F087F9A7A006F084F934
:10715000A4480599203806F07FF9A3A006F07CF931
:10716000A0480499203806F077F99FA006F074F93A
:107170009C480399403006F06FF99BA006F06CF92B
:10718000ACA0029906F068F997A006F065F9AAA0EC
:10719000019906F061F994A006F05EF99148009912
:1071A000143806F059F990A006F056F994A006F0AC
:1071B00053F9002404E093A006F04EF9641CE4B2F5
:1071C000B442F8D38EA006F047F98CA006F044F93B
:1071D00084483978483006F03FF983A006F03CF93E
:1071E00097A006F039F900240325281BC019203088
:1071F000817B7C4806F030F9641CE4B2042CF4D3A3
:1072000079A006F029F977483979483006F024F951
:1072100075A006F021F979898AA006F01DF972A0FF
:1072200006F01AF9387A002810D085A006F014F973
:1072300000240E20001BC01940308178694806F0F8
:107240000BF9641CE4B20F2CF3D308E07EA107C94C
:107250006B4607C363486946403006F0FDF862A0FC
:1072600006F0FAF879787BA006F0F6F85EA006F052
:10727000F3F879A30FCB6C460FC469466EA006F0F5
:10728000EBF859A006F0E8F86DA006F0E5F8002448
:10729000281BC0192030C179524806F0DDF8641C63
:1072A000E4B2042CF4D355A006F0D6F854A006F0AE
:1072B000D3F8002404E053A006F0CEF8641CE4B236
:1072C000B442F8D35BE568A006F0C6F8FF202D3085
:1072D000464356480021301842187B18203220338C
:1072E000491C527BC9B29A730429F5D30246203255
:1072F000517C3971CB09DB017B7140230B40BB71A1
:1073000020230B40FB7110230B4009077B73090FEF
:107310003972917CD27C120289187981002107E0B0
:10732000421820327B184033127D491C9A70C9B232
:107330003A7A8A42F4D8D1B23C4A34368A18925DFD
:107340007A700A460932FA73428D511A0D3939742E
:10735000002104235B1AD31A7E181B182033203611
:10736000491C1B7BC9B2F3710429F2D300201821F8
:1073700041434919097D401C0919C0B2CCB2082803
:10738000F5D30934E6B2002404E01EA006F064F848
:10739000641CE4B2B442F8D319A006F05DF812A060
:1073A00006F05AF80F482249203806F055F80EA08A
:1073B00006F052F80B480699143806F04DF80AA06A
:1073C00006F04AF807480599203806F045F806A067
:1073D00006F042F803480499203806F03DF802A070
:1073E00054E00000946F00087C00000025313264F6
:1073F000000000002531306400000000240000007F
:107400000A0000002D00000023232320756E636F07
:107410006E6669726D6564206461746120757020A8
:10742000636F6D6D616E640A00000000E001002072
:10743000A4BC010825377300253136730000000015
:1074400020200000253664006E6F20464F70747354
:107450000000000025376400456E63727970746522
:10746000642064617461000023232320756E636FC0
:107470006E6669726D6564206461746120646F7703
:107480006E20636F6D6D616E640A000005F0E4FFAD
:10749000F948039905F0E0FFF8A005F0DDFFF84892
:1074A000029905F0D9FFF5A005F0D6FFF44801993F
:1074B000001D05F0D1FFF1A005F0CEFFEE480099C8
:1074C000543805F0C9FFEDA005F0C6FFEDA005F0AA
:1074D000C3FF002404E0ECA005F0BEFF641CE4B28E
:1074E000B442F8D3E7A005F0B7FFE8A005F0B4FF79
:1074F000E1483978083005F0AFFFE0A005F0ACFFB7
:10750000E3A005F0A9FF00240325281BC0192030A3
:10751000817BD948403805F09FFF641CE4B2042CFD
:10752000F3D3D6A005F098FFD3483979083005F099
:1075300093FFD2A005F090FFD1487989103005F073
:107540008BFFCEA005F088FF387A002811D0D0A09C
:1075500005F082FF00240E20001BC0194030817806
:10756000C548403805F078FF641CE4B20F2CF2D314
:1075700008E0C34A6B46143207CA07C36946BE48CF
:1075800005F06AFFBDA005F067FFBD48797820309F
:1075900005F062FFB9A005F05FFFB94B6C462433DC
:1075A0000FCB0FC4B6486946001D05F055FFB3A0C8
:1075B00005F052FFB6A005F04FFF0024281BC019AC
:1075C0002030C179AC48403805F046FF641CE4B275
:1075D000042CF3D3ADA005F03FFFAAA005F03CFFBB
:1075E000002404E0A8A005F037FF641CE4B2B44214
:1075F000F8D32DE5A7A005F02FFFFF202D3046433F
:10760000AC480021301842187B1820322033491C26
:10761000527BC9B29A730429F5D302462032517CB9
:107620003971CB09DB017B7140230B40BB712023F7
:107630000B40FB7110230B4009077B73090F397254
:10764000917CD27C120289187981002107E04218CE
:1076500020327B184033127D491C9A70C9B23A7AA5
:107660008A42F4D8D1B2934A34368A18925D7A703D
:107670000A460932FA73428D511A0D3939740021C4
:1076800004235B1AD31A7E181B1820332036491C9A
:107690001B7BC9B2F3710429F2D3002018214143A6
:1076A0004919097D401C0919C0B2CCB20828F5D38C
:1076B0000934E6B2002404E073A005F0CDFE641C9A
:1076C000E4B2B442F8D36FA005F0C6FE6BA005F09B
:1076D000C3FE69487849603805F0BEFE67A005F032
:1076E000BBFE65480699543805F0B6FE63A005F068
:1076F000B3FE61480599603805F0AEFE5FA005F065
:10770000ABFE5D480499603805F0A6FE5BA005F06D
:10771000A3FE5948039905F09FFE58A005F09CFE72
:107720005748029905F098FE54A005F095FE54487C
:107730000199001D05F090FE50A005F08DFE4E4809
:107740000099543805F088FE4CA005F085FE4DA048
:1077500005F082FE002404E04BA005F07DFE641CD1
:10776000E4B2B442F8D347A005F076FE47A005F096
:1077700073FE41483978083005F06EFE3FA005F0F1
:107780006BFE43A005F068FE00240325281BC019EA
:107790002030817B3848403805F05EFE641CE4B23E
:1077A000042CF3D335A005F057FE3348397908305F
:1077B00005F052FE31A005F04FFE314879891030B6
:1077C00005F04AFE2DA005F047FE387A002811D0BA
:1077D0002FA005F041FE00240E20001BC0194030F0
:1077E00081782548403805F037FE641CE4B20F2C40
:1077F000F2D308E0224A6B46143207CA07C369462F
:107800001D4805F029FE1DA005F026FE1C487978CC
:10781000203005F021FE19A005F01EFE184B6C4625
:1078200024330FCB0FC416486946001D05F014FE23
:1078300012A005F011FE16A005F00EFE0024281B74
:10784000C0192030C1790C48403805F005FE641C91
:10785000E4B2042CF3D30DA005F0FEFD09A005F061
:10786000FBFD002404E008A005F0F6FD641CE4B272
:10787000B442F8D326E50000D46F00087C00000075
:10788000347400080A0000002D00000024000000ED
:107890002020000023232320636F6E6669726D65CC
:1078A00064206461746120757020636F6D6D616E1A
:1078B000640A0000E0010020A4BC01089FA005F0BC
:1078C000CBFDFF202D304643A3480021301842183D
:1078D0007B1820322033491C527BC9B29A73042989
:1078E000F5D302462032517C3971CB09DB017B7123
:1078F00040230B40BB7120230B40FB7110230B4036
:1079000009077B73090F3972917CD27C12028918A6
:107910007981002107E0421820327B184033127D24
:10792000491C9A70C9B23A7A8A42F4D8D1B28A4ACA
:1079300034368A18925D7A700A460932FA73428D9B
:10794000511A0D393974002104235B1AD31A7E1899
:107950001B1820332036491C1B7BC9B2F371042944
:10796000F2D30020182141434919097D401C09190F
:10797000C0B2CCB20828F5D30934E6B2002404E042
:1079800076A005F069FD641CE4B2B442F8D374A09B
:1079900005F062FD73A005F05FFD7349734805F0C3
:1079A0005BFD70A005F058FD704806990C3005F09D
:1079B00053FD6CA005F050FD6C48059905F04CFD99
:1079C00068A005F049FD6948049905F045FD65A0EA
:1079D00005F042FD65480399603005F03DFD61A06A
:1079E00005F03AFD6248029905F036FD5DA005F00C
:1079F00033FD5F480199001D05F02EFD59A005F0EB
:107A00002BFD5A4800990C3005F026FD55A005F0D5
:107A100023FD53A005F020FD002404E04FA005F055
:107A20001BFD641CE4B2B442F8D34DA005F014FD74
:107A300050A005F011FD4D483978683005F00CFD77
:107A400048A005F009FD4CA005F006FD0024032523
:107A5000281BC0192030817B4448203005F0FCFCF5
:107A6000641CE4B2042CF3D33EA005F0F5FC3F48BF
:107A70003979683005F0F0FC3AA005F0EDFC3C489F
:107A80007989103005F0E8FC36A005F0E5FC387A7D
:107A9000002810D038A005F0DFFC00240E20001BC9
:107AA000C0194030817835A005F0D6FC641CE4B2E2
:107AB0000F2CF3D309E02E4A6B46143207CA07C3D2
:107AC0002A486946603005F0C7FC26A005F0C4FCD2
:107AD00027487978203005F0BFFC22A005F0BCFCD7
:107AE000234B6C4624330FCB0FC421486946001D3D
:107AF00005F0B2FC1BA005F0AFFC1FA005F0ACFC2C
:107B00000024281BC0192030C1791848203005F006
:107B1000A3FC641CE4B2042CF3D316A005F09CFC77
:107B20000FA005F099FC002404E00CA005F094FCE3
:107B3000641CE4B2B442F8D35BE5000023232320A5
:107B4000636F6E6669726D656420646F776E206323
:107B50006F6D6D616E640A00E00100202D00000071
:107B60000A0000007C000000A4BC0108746F00083B
:107B700034740008240000002020000025303278F2
:107B80000000000070B5254C00252078012813D195
:107B900023480268234801682348006804F0A8FAD3
:107BA000FF210523607001311B072570002807D0D5
:107BB0000122184601F0DBFB6078012802D003E0C7
:107BC0000022F6E704F036F9184C2078012823D17A
:107BD0002179FE2905D02046EE290BD063290ED04D
:107BE00019E013486188036812480268201D03F0F9
:107BF000C2FA10E08178201D03F004FA0BE041790D
:107C00006F2908D181796E2905D1E0796E2802D1DA
:107C1000094901200870257070BD00000C0100208A
:107C20001C010020180100201401002098360020BB
:107C300020010020240100201101002010B50F4870
:107C4000602181700F2181610121C1700024447283
:107C500005210B48FEF70EFB012004F089FD0022F0
:107C60000121084801F083FB142001F0ABFA04F075
:107C7000D7FD03F051FB0448047010BD902E002086
:107C80000C0100200004005011010020F8B50E4640
:107C9000074600252C4606210C48FEF7EBFA0B4858
:107CA000F5210170FF2141708770C6700119497874
:107CB000641C4919E4B2CDB2032CF7D305715F21DE
:107CC00041710621014805F019FAF8BD5401002060
:107CD000F7B5FFB09FB00E460027142198A8FEF715
:107CE000C9FA0025FF212C462D3102A80095FEF788
:107CF000C1FAFF212D314DA8FEF7BCFA9E98405DD8
:107D00003055641C6D1C142DF8DBA0990020173928
:107D100006E09E9A1218137D02AA1354401C7F1C81
:107D20008842F6DB21493D464878898898AB41185E
:107D300089B21F4A00F0ECFA1D4A1021FE3A98A8B9
:107D400006F052F9781B4DA9411802AA019080183B
:107D5000174AFE3A06F01DF900204DA9019A1218A3
:107D60008A5C3255401C641C1028F7DB103D002D46
:107D7000E8DC0020A0990A189E99401C511820396F
:107D8000497F3155641C0328F4DB0020E11E05E027
:107D90003218D378009A9A18401C00928842F7DB78
:107DA000009830557FB0601C22B0F0BD2C0100203F
:107DB0003A310020FFB5CBB01D461446FEF728FA35
:107DC000FF21FEF7ABF9CAB22A4FE5237A70684665
:107DD0000370FC2343702923837003210023EE5C8E
:107DE0004654491C5B1CDBB289B2082BF7D3224EE8
:107DF0000023F518AD7A4554491C5B1CDBB289B2EF
:107E0000082BF6D3A31C4354FB78491C89B21B01F1
:107E100043544318BE781D783607360FAD19491CF8
:107E20001D7089B2549B4354491C89B2002306E05B
:107E30004C9DED5C4554491C5B1C89B2DBB2A342EE
:107E4000F6D33B784354491C89B24254491C8BB247
:107E5000B988491CB9808918C1545B1C9AB2090AB7
:107E60008154521C92B24B99FFF732FF80B24FB04F
:107E7000F0BD00002C01002030310020FFB5FFB024
:107E80009EB005461C46142198A8FEF7F3F9002081
:107E900007460646FF2100902D3102A8FEF7EAF9B9
:107EA000FF212D314DA8FEF7E5F9E95D9E987F1C75
:107EB0008155761C142FF8DB9F990020173907E0B5
:107EC0002A18137D02AA1354009A521C401C0092D7
:107ED0008842F5DBE878009FE070287920716879A6
:107EE0006071A879A071E879E071287A2072687AC7
:107EF0006072A87AA072E87AE072287B2073687BAF
:107F00006073A87BA073E87BE073287C2074687C96
:107F10006074A87CA074E87C20769F98E11D2A18E4
:107F2000203A107FF93101918871019B517F1981AD
:107F3000927F98AB12028918091A019A89B21181AD
:107F400022460B3200F0E4F9194A102198A806F0F5
:107F50004BF800984DA9C01B411802AA8018144A7A
:107F600005F0EEFF103F002FF3DC00204DA904E0E8
:107F70000B5C9E9A401C9355761C227E521C8242BA
:107F8000F6DC00209F990918491920390A7F9E992B
:107F9000401C8A55761C0428F4DB9E98217E143000
:107FA000095C019841717FB0012022B0F0BD000052
:107FB0003C3000207CB500250095019502782C46C8
:107FC000E52A05D14278FC2A02D18278292A02D0FA
:107FD0000020C0437CBD00220B1F05E08618F67808
:107FE0007519521CEDB292B29A42F7DB4118203952
:107FF000C97FA94233D1C27A69460A70027B4A70AE
:10800000427B8A70827BCA70C27B0A71027C4A7191
:10801000427C8A71807CC871124A00200B5C155C1E
:10802000AB4201D1641CE4B2401C80B20828F5D3F5
:10803000082C0CD00C4A002014180B5CA47AA34224
:1080400007D00AA005F008FA0320C0437CBD102029
:108050007CBD401C80B20828EED301207CBD0120ED
:10806000C0437CBD400100203031002045554920EF
:108070006572726F7220210A0000000030B5FFB0F7
:10808000FF2590B004462D35294643A8FEF7F2F8A7
:10809000294643A8FEF7EEF8FF210D316846FEF7AA
:1080A000E9F81C4821684160218A0181A069FEF736
:1080B0008DFB06F017F8FEF747FB174DE860E06907
:1080C000FEF784FB06F00EF8FEF73EFB2861204623
:1080D0002C30618D0546FFF76DFF012816D1628DAA
:1080E0006B4643A92846FFF7C9FE01280ED140A8D8
:1080F000407966280AD1694643A800F00FF80128A4
:1081000004D16846017E193000F080F87FB010B0CD
:1081100030BD0000303100202C010020F0B50023DC
:108120000B60C278CA7002790A7142794A71827909
:108130008A71C279CA71027A0A72427A4A72827A62
:108140008A72C27ACA72027B0A73427B4A73827B4A
:108150008A73C27BCA73027C0A74427C4A74827C32
:108160008A74294C00228D18ED78A554521CD2B285
:10817000082AF8D3C27C521E0A764A69047D120985
:10818000120124092243F0244A61A243047D2407FA
:10819000240E22434A611C4C1206120F1C3C032A77
:1081A00000D1E380002205E083188D185B7D521C0E
:1081B0006B76D2B20B7E9342F6D80246DBB2163211
:1081C0009F5CCA1DF9320546977117355D5D0646FD
:1081D000158118369E5D3602AD19ED1BADB21581C5
:1081E000097D0906090F072908D0E1888D4204D8C6
:1081F000002D02D00720C043F0BDE5801A30185C86
:10820000D0720120F0BD00004801002070B5FFB021
:10821000FF24F3B006460134214635A8FEF72AF8BC
:108220002146ADA8FEF726F830780625234C6028B5
:1082300002D061280BD11FE0EDA9304604F086FC86
:10824000012816D04042602130AA11755075AC202B
:108250001A4B00901C33032235A9ADA8FFF7AAFDE5
:1082600081B2ADA800F068F80520E0707FB073B06F
:1082700070BDE570FF20E6E775A9304603F002F80F
:10828000002818DDE570D42278A96846FDF7D9FFEB
:1082900075A80EC835A802F0BFFF6121074B82B256
:1082A00000911C3335A9ADA8FFF784FD81B2ADA8BC
:1082B00000F042F8DAE740426121C5E72C010020D6
:1082C00000220A60827812064A60C3781B04D21822
:1082D0004A6003791B02D2184A604379D2184A6077
:1082E00082790A72C2790A700849027A0A70427A5F
:1082F0004A70827A8A70C27ACA70027B0A71427BA3
:108300004A71827B8A71C07BC87170475A01002014
:1083100030B500244840C1B2105D48401855641C77
:10832000082CF9DB0020145C1D184C40401C2C72FA
:108330000828F8DB30BD000070B50F4C0F4A6568A7
:108340000023156013712678567310269673032642
:10835000D673248914610124147593760824148338
:10836000537503E0C45CD518AC775B1C8B42F9DB1A
:10837000918304F0A3F970BD3031002090060020F5
:10838000F0B50A89825C072A4CD85301284A002498
:10839000D4540E89451C755D0126002D08D0D65495
:1083A0000D89871CED5D002D04D0012D05D039E02D
:1083B000D454F5E79D186C7001E09C1866700D8927
:1083C000C41CAC462D5D00272E0604D501276D0682
:1083D0006D0E664635550D89061DAE5D2C5D360267
:1083E00024043419461DAD5D641964256C43114D98
:1083F000AC4217DC002F00D064429A1854600989FF
:10840000801D085C10280FD006DC02280CD0042840
:108410000AD0082806D107E0202805D0402803D03C
:108420007E2801D00020F0BDD0600120F0BD00000A
:10843000F02E0020404B4C0070B54178012907D048
:10844000022908D003290BD00EA005F005F817E08B
:108450001723174A02E0164A15238A3200210DE03D
:108460000523144A002106244C430578145DA542D7
:1084700002D1C180012070BD491CC9B29942F2D31A
:10848000002070BD0A204672616D6520666F726DB6
:10849000617420436865636B203A4552524F522005
:1084A0004374726C20436F64655B25645D200A0031
:1084B00072BD01087ABE010810B54178012904D0C7
:1084C00002290CD0032908D114E0C18806225143A7
:1084D0000E4A09E00EA004F0BFFF002010BDC188C5
:1084E00006225143094A8A3289184A8841898A42B8
:1084F00009D0EFE7C18806225143134A89184A88F8
:1085000041898A42E6D3012010BD000072BD0108F6
:108510000A204672616D6520666F726D617420433A
:108520006865636B203A4552524F523E3E44617437
:10853000616C656E3A20256420697320696E7661EE
:108540006C69640A000000007ABE010870B50B4C2B
:10855000102520680562022000F034FE21684020CA
:10856000086202010649204602F080F9206801688D
:10857000294301602068056270BD00001C3B00209B
:108580009C36002010B500231A4604E0845CE318F2
:10859000521CDBB292B28A42F8D3405C984201D1BD
:1085A000012010BD0020C04310BD000010B5012007
:1085B00004F0DEF800220121064800F0D8FE142065
:1085C00000F000FE04490020487004498870012032
:1085D00010BD0000000400500C01002064010020C8
:1085E000F0B5C5B0002424A004F036FF294D2A4E72
:1085F0002878012833D100F091F8002129703178D2
:10860000012936D112282DD1FF212448FDF732FE51
:10861000224970781E39224A401C04E0135D0F196C
:10862000641CBB77E4B28442F8D368881D4C801E7A
:10863000888300220221204600F099FE1749FF227C
:1086400011320E396846FDF7FCFD14481E380FC87C
:1086500002F084FA01220221204600F088FE3078E0
:10866000012806D102F0B8FE0006000E01D005F088
:108670000FFE45B0F0BD0000436F6E666967546F32
:108680006F6C2056312E322E322052756E696E6715
:10869000200000009836002064010020BA34002039
:1086A00044310020000400500FB400B5A1B023AB4A
:1086B00080216846229A04F0F3FE684604F0F0FC3C
:1086C00021B008BC04B0184710B5024800F0AAFC5D
:1086D00010BD00009C3B002010B5034800F0A2FC38
:1086E000024800F09FFC10BD2C3C0020E43B002021
:1086F00030B5446C1C252C400125A540046C6560F8
:10870000046863608368102B036803D09960006875
:10871000C26030BD9A600068C16030BDF8B52D4CB4
:1087200000256188201D491E89B2FFF72BFFC0B2CA
:1087300001284AD1201D00F08DFB274EC5B23078AC
:10874000012801D1122D04D0112D16D0002836D0C9
:1087500037E0FF2101312148FDF78CFD60881F4A79
:108760000146801E7070002004E023181B7913540A
:10877000401CC0B28142F8D827E00020307001468A
:10878000FFF784FA60790127012802D002281CD162
:1087900013E01149201D091DFFF792FD04F062FD51
:1087A000012802D0C1B203200DE000210120FFF713
:1087B0006DFA0B483770477007E0B77005E0122D6F
:1087C00005D000210520FFF761FA2846F8BD0021F9
:1087D0000220F8E798360020640100204431002090
:1087E0000C01002010B55468FE2323705468637098
:1087F00054686823A370437854689033E3705368D7
:108800000078187153680020587154680123A371CF
:108810005368D97151680872022051680C5C0B7A58
:10882000401C1B19C0B20B720828F6D351681620E1
:1088300048720A201081012010BD0000FEB5924A46
:108840006C460DCA0DC40021904A084618234343C4
:108850009B189B8A401C591880B289B20A28F5D30C
:108860000B3100258EB22C4604E089A004F0F4FD03
:10887000641CA4B2B442F8D386A004F0EDFD86A037
:1088800004F0EAFD814985A004F0E6FD82A004F031
:10889000E3FD7E4981A0183104F0DEFD7EA004F0E6
:1088A000DBFD7A497DA0303104F0D6FD7AA004F0DA
:1088B000D3FD764979A0483104F0CEFD76A004F0CE
:1088C000CBFD724975A0603104F0C6FD72A004F0C2
:1088D000C3FD6E4971A0783104F0BEFD6EA004F0B6
:1088E000BBFD6A496DA0903104F0B6FD6AA004F0AA
:1088F000B3FD664969A0A83104F0AEFD66A004F09E
:10890000ABFD624965A0C03104F0A6FD62A004F091
:10891000A3FD5E4961A0D83104F09EFD5EA004F085
:108920009BFD5CA004F098FD002404E058A004F036
:1089300093FD641CA4B2B442F8D356A004F08CFD9D
:1089400058A004F089FDFF202D304543564F57A015
:10895000EC19217904F080FD4FA004F07DFD7959D8
:1089600052A004F079FD4CA004F076FD2069102897
:1089700011D006DC022808D0042808D0082804D129
:1089800007E0202809D0402809D0072108E0082165
:1089900006E0092104E00A2102E00B2100E00C219D
:1089A00042A004F059FD3CA004F056FD618D3FA0AB
:1089B00004F052FD38A004F04FFD207D012805D0C1
:1089C000022805D003284BD004284BD039A100E061
:1089D0003BA16846FDF759FC694630A004F03CFD18
:1089E0002DA004F039FD607910283DD011283ED02B
:1089F00036A12AA004F030FD27A004F02DFDE06987
:108A0000FDF7E4FE02460B4632A004F025FD22A04D
:108A100004F022FD206AFDF7D9FE02460B462DA088
:108A200004F01AFD1CA004F017FD606AFDF7CEFEED
:108A300002460B4627A004F00FFD17A004F00CFD22
:108A4000A069FDF7C3FE02460B4622A004F004FD18
:108A500014A004F001FD0FA004F0FEFC00240DE0C2
:108A60001EA1B6E720A1B4E7218D22A0C2E723A171
:108A7000BFE707A004F0F0FC641CA4B2B442F8D332
:108A800004A004F0E9FCFEBD64BD010894BA01082D
:108A90002D0000000A0000007C000000253130732A
:108AA0000000000040000000E0010020253130649B
:108AB0000000000043523128342F35290000000007
:108AC00043523228322F3329000000006E6F2043BA
:108AD000524300002531302E3166000043523328C6
:108AE000342F37290000000043523428312F322917
:108AF00000000000253130580000000043524320A0
:108B00006572726F720000007047000070B5054614
:108B1000508A144600260A1A072A03DA401C60828B
:108B20004FA021E001229202914203D9401C6082B1
:108B300059A02DE0664AA28004E02B5C682B09D086
:108B4000401C80B28842F8D3A088904205D161824F
:108B500060A009E0A0806082F6E70A1A072A07DA17
:108B6000608A401C608266A004F076FCFE2070BD26
:108B7000EA1C825C2B1DC35C1202D21892B2628185
:108B80008218D31D8B4206D9608A401C60826AA07D
:108B900004F062FC39E0A91D515C162904D0608AFA
:108BA000401C608274A0F3E7811C89B2E1806A5C9A
:108BB00022706A1C825C401C6270A070C91C2181FA
:108BC000784900200B5C9A4216D12046FFF734FC0E
:108BD00000281CD02046FFF76FFC00281FD0A0887B
:108BE00061894118491D89B24A1C92B2A181131AA8
:108BF000E2815B1C23821CE0401CC0B20328E1D34D
:108C0000608A401C608268A0C2E7FF2070BD608A55
:108C1000401C6082217871A004F01EFCF5E7608A98
:108C2000401C6082062070BD2B5C9B19401CDEB28C
:108C300080B28142F8D8685CB04207D0608A401C9C
:108C4000608273A004F008FC032070BD7A49012003
:108C50004870628279A004F0FFFB002070BD000024
:108C60000A204672616D6520666F726D61742043E3
:108C70006865636B203A4552524F523E3E667261C0
:108C80006D65206C656E20697320746F6F2073684A
:108C90006F72740A000000000A204672616D652040
:108CA000666F726D617420436865636B203A45524C
:108CB000524F523E3E6672616D65206C656E206952
:108CC0007320746F6F206C6F6E67200A00000000C5
:108CD000FFFF00000A204672616D6520666F726DAD
:108CE000617420436865636B203A4552524F523E8F
:108CF0003E6E6F742066696E6420307836380A00E4
:108D00000A204672616D6520666F726D6174204342
:108D10006865636B203A4552524F523E3E3078367A
:108D20003820697320636F6D696E6720746F6F20E0
:108D30006C6174650A0000000A204672616D65204E
:108D4000666F726D617420436865636B203A4552AB
:108D5000524F523E3E64617461206C656E206C6FB0
:108D60006E676572207468616E206672616D652041
:108D70006C656E0A000000000A204672616D652075
:108D8000666F726D617420436865636B203A45526B
:108D9000524F523E3E6E6F742066696E642030788A
:108DA00031360A006EBD01080A204672616D6520E9
:108DB000666F726D617420436865636B203A45523B
:108DC000524F523E3E6E6F742066696E6420746826
:108DD0006973204320636F64650A00000A204672AD
:108DE000616D6520666F726D617420436865636BA9
:108DF000203A4552524F523E3E44493A202532785D
:108E000020697320696E76616C69640A0000000055
:108E10000A204672616D6520666F726D6174204331
:108E20006865636B203A4552524F523E3E43532091
:108E30004552524F520A00003030002020467261E5
:108E40006D6520666F726D617420436865636B2089
:108E50004F4B0A000178A52902D0E52902D007E08E
:108E6000112070474178FC2902D18178292902D04C
:108E70000020C04370470949C2780A7002794A70DD
:108E800042798A708279CA70C2790A71027A4A710B
:108E9000427A8A71807AC871122070475A01002084
:108EA000F0B5044600201E23012601E05B1E05D319
:108EB000DF06FF0E3546BD400D42F7D0002A0ED02A
:108EC000082A0AD0102A05D0182A01D1072B06D368
:108ED0000120F0BD082BFBD201E0102BF8D2236853
:108EE0005961236899681824A14311439960F0BD22
:108EF00010B5040012D0607F002803D120772046EF
:108F000000F034F8022060772079002808D020464D
:108F1000E268A168FFF7C4FF002809D0012010BD56
:108F20002168114848612068816818229143816056
:108F30006079002814D02069216808612168886858
:108F400060229043626910438860216888688022AB
:108F50009043A2691043886001206077002010BD13
:108F60000020C043E8E70000B71DC10408B5006851
:108F70000549884207D10548026B81140A43026300
:108F8000006B0840009008BD003002400010024015
:108F900030B5014620314A790023022A04D0042248
:108FA000C2630B71012030BD026814680E25AC430A
:108FB000146002681468640864001460446C1C2225
:108FC000144001221546006CA54045604A711846C0
:108FD0000B7130BD70B50024014620314A79022A58
:108FE00003D00421C163012418E0026813680E2530
:108FF000AB431360026813685B085B001360436C4B
:109000001C221340012215469D40036C5D604A718D
:1090100000220A71816B002900D08847204670BD6C
:10902000C06B7047F0B4016C0D6801680C68466C49
:109030001C2304221E401746B7402F420ED067075C
:109040000CD50C68A40602D40C6894430C60416CE7
:1090500019408A40016C4A60016B1AE00227B74050
:1090600002462F402032002F17D0A70715D50C68D5
:10907000A40605D40C680A25AC430C60012151718B
:10908000446C02211C40036CA14059600021117105
:10909000C16A002918D0F0BC08470827B7402F4202
:1090A00012D0240710D50C680E25AC430C60446C1C
:1090B00001211C400B46A340046C6360C1635171E5
:1090C00000211171416BE4E7F0BC704770B50400FA
:1090D0003CD01F48256814212818FDF709F88000A6
:1090E00060641C4820640221204620300246417101
:1090F00029681948E3680140A06866691843236934
:1091000033431843A3691843E3691843236A184398
:10911000084328600121A0688903884210D00D48C7
:109120008030836A656C1C210D400F26AE40B3432E
:109130008362656C63680D40816AAB400B43836258
:109140000020E06301215171107170BD012070BDDC
:10915000F8FFFDBF000002400F80FFFFF8B5044696
:109160008C46203001790025012909D0012606719D
:1091700041790027012905D0077102252846F8BD4D
:109180000220F8BD02214171E763206801684908A7
:109190004900016061462046FFF7AAFA206B0028CB
:1091A0002068016801D00E2205E00422914301608D
:1091B000206801680A221143016020680168314378
:1091C0000160DBE770B5044600F0D8F80546601C86
:1091D00000D0641C00F0D2F8401BA042FAD370BD4E
:1091E000F8B500230124A7E027469F403A4070D0FD
:1091F0004D68022D01D0122D14D1DD08AD002D18BF
:1092000000952D6A5E07AC46F50E0F26AE46AE40C1
:109210006546B543AC460E697546AE4065462E437D
:10922000009D2E624D68012D05D0022D03D0112D19
:1092300001D0122D16D185680326AC465D00AE46DE
:10924000AE406546B543AC46CE687546AE40654611
:109250002E43866046680D79BE43ED06ED0F9D40B6
:109260003543456006685F000325BD40AE46AE430A
:109270000D79B446AE07B60FBE4065462E43066074
:10928000C6687546AE438D68BD403543C5604D68C0
:10929000ED0050D52B4D6E6B26436E639E082A4D14
:1092A000B6007519AC46AD689E07360F0F27B7405C
:1092B000BD4305273F07B84201D100271AE0234FDD
:1092C000B84201D1012715E0214FB84202D102274F
:1092D00010E030E01F4FB84201D103270AE01E4FD3
:1092E000B84201D1042705E01C4FB84201D105273F
:1092F00000E00627B7402F436546AF60184D2E6843
:109300004F689643FF0300D516432E606E684F6882
:109310009643BF0300D516436E60AE684F68964310
:10932000FF0200D51643AE60EE684F689643BF0259
:1093300000D51643EE605B1C0A681546DD4000D080
:1093400052E7F8BD00100240000001400004005048
:1093500000080050000C005000100050001C00508D
:10936000000401400069084000D001207047002A35
:1093700001D0816170478162704700000148006838
:10938000704700008C01002002480168491C016000
:10939000704700008C01002010B5084800240168C7
:1093A000402211430160204600F00AF8002801D055
:1093B000012401E000F01CF8204610BD002002400E
:1093C00070B5054609487D210024C9000068FCF7F6
:1093D0008FFE00F0A9FE002801D0012404E0002245
:1093E0002946501E00F01AF8204670BD900100205A
:1093F0000448416B012211434163816B0204114314
:109400008163704700100240C106C90E01208840E8
:10941000014908607047000000E100E010B501F06C
:10942000CFFD10BDF8B504460078594D800672D5C1
:10943000574E0027403EB06BC00004D4B06BA90566
:109440000843B063012753480168C90511D4016876
:10945000821511430160FFF791FF009005E0FFF7CF
:109460008DFF0099401A642837D84A480068C00523
:10947000F5D532680321090560680A400140914230
:1094800008D08103890F032904D13168890301D5EC
:109490000120F8BD2A69032109040A4022D00840AE
:1094A00090421FD0207880061CD528692A698843FD
:1094B0000121C9040A432A612A698A432A61286171
:1094C000C0050FD5FFF75AFF009008E0FFF756FFE1
:1094D0000099411A3048814201D90320F8BD28691A
:1094E0008005F3D561688803800F032805D13268B1
:1094F0000005824301400A43326028690322616803
:109500001204114008432861002F04D0B16B0120E0
:1095100000078143B1632078C00705D0E868A168DF
:10952000800880000843E8602078800705D5E86857
:109530000C218843E1680843E8602078400706D59D
:10954000E86803218902884321690843E86020789C
:10955000000706D5E86803210903884361690843C9
:10956000E8602088C00506D5E8680321090488431F
:10957000A1690843E8602078000606D5E868032161
:1095800089048843E1690843E8600020F8BD0000D1
:10959000401002400070004088130000F8B50E46ED
:1095A00005007DD053480068C007C00FB0420AD202
:1095B0005048016849084900314301600068C0070C
:1095C000C00FB04271D128784B4C800705D5E068B8
:1095D000F0218843A9680843E0602878C00752D08A
:1095E0006868022817D0032818D02168012818D0ED
:1095F0008905002959DAE168890889000143E16099
:10960000FFF7BCFE69680746022912D003291CD067
:10961000012926D033E021688903EAE7216889011E
:10962000E7E74907E5E7FFF7A9FEC11B3348814299
:1096300023D8E0680007800F0228F4D123E0FFF769
:109640009DFEC11B2D48814217D8E0680007800F9E
:109650000328F4D117E0FFF791FEC11B2748814290
:109660000BD8E0680007800F0128F4D10BE0FFF76A
:1096700085FEC11B2148814201D90320F8BDE06865
:109680000007800FF3D11B480168C907C90FB14219
:109690000DD901684908490031430160006800E0C4
:1096A00003E0C007C00FB04201D00120F8BD287808
:1096B000400706D5E068072109028843E9680843A6
:1096C000E0602878000707D5E0680721C9028843D1
:1096D0002969C9000843E06000F036F8E168084AEB
:1096E0000906090F515CC840064908600020FFF7D1
:1096F00067FEF8BD00200240001002408813000001
:1097000098BE010890010020044805490068C96816
:10971000044A4905490F515CC84070479001002038
:1097200000100240B1BE0108044805490068C9683C
:10973000044A8904490F515CC840704790010020D9
:1097400000100240B1BE010810B5184AD1680C20C3
:10975000084004280BD0082810D00C2810D05068DE
:109760000004410F0120C003491C884010BD10684F
:10977000C00601D50E4810BD0E4810BD0E4810BDE4
:1097800088020E4B000F185C0902D368890F491C30
:10979000DB0301D5084A05E01268D20601D5044A68
:1097A00000E0044A5043FCF7A3FC10BD0010024047
:1097B00000093D000024F40000127A00A8BE010850
:1097C000FEB505007ED0FE4CE7680C20E668074039
:1097D0000120000406402878C00747D0082F05D094
:1097E0000C2F0AD101200004864206D12068800394
:1097F0003CD568680028E5D038E00120696800049D
:10980000814203D121680143216011E00523012237
:109810001B0492049942216802D111432160F1E7AF
:1098200081432160216801400091206890432060BD
:10983000686800280DD0FFF7A1FD009005E0FFF754
:109840009DFD0099401A64287ED820688003F6D5D3
:109850000CE0FFF793FD009005E0FFF78FFD009906
:10986000401A6428F0D820688003F6D4287880074E
:109870005CD5E868810604D5226820210A4322606D
:1098800088430923042F0DD00C2F01D1002E09D0BD
:1098900000283BD02168994301432160FFF76EFD0A
:1098A000064627E02168490701D500288AD061686B
:1098B0001F22120291432A6912021143616021683A
:1098C000994300E08EE101432160FFF73DFFE1682D
:1098D00009060A0FBB49895CC840BB4908600020E3
:1098E000FFF76EFD002873D120E0FFF747FD801BD6
:1098F0000228A9D820684007F7D560681F2109020F
:10990000884329690902084360600FE02068400825
:1099100040002060FFF732FD064604E0FFF72EFD11
:10992000801B022890D820684007F7D42878C0060A
:1099300060D5002F0DD0A86900284AD02068FF21EB
:1099400001310843206000E0C4E0FFF717FD064640
:109950002CE02068800502D5A8690028A6D06068A0
:10996000072149038843296A084360606068297FAA
:109970000002000A090608436060286A410B0120C2
:10998000C003491C8840E16809060A0F8D49895CBB
:10999000C8408D4908600020FFF712FD002817D14C
:1099A00028E0FFF7EBFC801B0228A2D82068800586
:1099B000F7D56068072149038843296A0843606036
:1099C0006068297F0002000A09060843606011E010
:1099D000E1E02168FF20013081432160FFF7CEFCE8
:1099E000064604E0FFF7CAFC801B022872D82068F4
:1099F0008005F7D42878754E000724D568690028BB
:109A0000306910D0012108433061FFF7B7FC0090A6
:109A100005E0FFF7B3FC0099401A02285AD83069D4
:109A20008007F6D50FE0400840003061FFF7A6FC44
:109A3000009005E0FFF7A2FC0099401A022849D8DF
:109A400030698007F6D42878400765D50020029059
:109A5000A06BC00006D4A06B012109070843A063D6
:109A6000012002905A480168C90511D40168821585
:109A700011430160FFF782FC009005E0FFF77EFCD8
:109A80000099401A642825D851480068C005F5D5CA
:109A9000FF20AA680130824203D13169014331615C
:109AA00011E001218902002A07D005231B029A42F6
:109AB00003D132690A433261EFE73269824332618E
:109AC000306988433061A86800280FD0FFF756FC42
:109AD000009007E05EE0FFF751FC0099411A3D4815
:109AE000814257D830698005F5D50DE0FFF746FC77
:109AF000009006E0FFF742FC0099411A3548814288
:109B000048D830698005F5D40298002804D0A16BAC
:109B1000012000078143A163686A002864D00C2FEC
:109B20003ED0012636060228206805D0B0432060CA
:109B3000FFF724FC05462FE0B0432060FFF71EFC32
:109B4000074604E0FFF71AFCC01B022822D8206851
:109B50008001F7D4E96AA86AE2680843296BFD230B
:109B60001B049A4311430843E0602068304320609F
:109B7000FFF704FC054604E0FFF700FC401B022849
:109B800008D820688001F7D52EE0FFF7F7FB401BCF
:109B9000022801D90320FEBD20688001F5D423E00E
:109BA0000128F8D0E06801210904AA6A0140914225
:109BB00018D10F218904EA6A0140914212D10BE0C9
:109BC0000010024098BE01089001002040100240A1
:109BD0000070004088130000032189050840296BAC
:109BE000884201D00120FEBD0020FEBDF7B505462C
:109BF00004462035287882B0012814D0012028702E
:109C0000022068702168CA20486221685320486297
:109C10002068806800264005FF27002812DAFFF739
:109C2000ADFB00900AE0022005B0F0BDFFF7A6FBF7
:109C30000099411A7D20C000814215D82068C06873
:109C40004007F3D420688168012292029143816029
:109C5000FFF794FB00900DE0FFF790FB0099411A8D
:109C60007D20C000814205D92068476203206870CA
:109C70002E70D9E72068C0684007EDD5206881685C
:109C8000C908C900816020688168049A1143816015
:109C9000216803984861206881680122920211437B
:109CA000816020684762012068702E700020BBE749
:109CB00010B500680B464068C021C943014000024E
:109CC000000ECC04D870E40E5C708C06A40E09045F
:109CD000490F9C701970002A0AD101F0F9FAD87066
:109CE000587801F0F5FA5870987801F0F1FA987008
:109CF000002010BD30B50B460168896A59600168C3
:109D000009694904490C9960006804680F482146B4
:109D1000014088024D04800E18706D0E49065D707A
:109D2000490E99706102490E40242140D970002AE1
:109D30000AD101F0CDFA1870587801F0C9FA5870BC
:109D4000987801F0C5FA9870002030BD7F7F7F00C1
:109D5000F8B5040050D0254620356878002803D196
:109D60002870204600F052F8022068702168CA204E
:109D70004862216853204862204601F0B1FAFF266C
:109D800004270028206802D046626F7034E08168A2
:109D90001D4A11408160216888686268A369104388
:109DA00022691A43104388602168E06808612068CE
:109DB000016922891204114301612068C16880226F
:109DC0009143C1602068C16C89088900C164E16960
:109DD000606901432068C26C1143C16420688068D7
:109DE00080060BD4204600F021F8002806D0206819
:109DF00046626F70002028700120F8BD206846621E
:109E0000012068700020F8BDBFFF8FFF0068054982
:109E1000884205D10448016901229204114301617D
:109E200070470000002800404010024070B5044612
:109E30000068C168A0229143C160FFF79FFA7D26A8
:109E40000546F60006E0FFF799FA401BB04201D93B
:109E5000032070BD2068C0688006F4D5002070BD66
:109E600070B5040007D0002625464035A662687C00
:109E7000002802D005E0012070BD2E74204600F0BD
:109E80002FF8022068742068016840229143016025
:109E9000A168606822690843E16811430843616969
:109EA00001220843A169520211400843E1690843B5
:109EB000216A0843A16A084321680860A069042157
:109EC000000C0840616A0843216848602068C16945
:109ED00092009143C161666501206874002070BDE5
:109EE00010B586B0044614216846FCF7C3F9104942
:109EF0002068884219D10F48416B82141143416395
:109F0000C16A01221143C162C06A0021104005905C
:109F1000E020009002200190032003900291049120
:109F2000052069460007FFF75BF906B010BD000089
:109F30000030014000100240FFB5044683B001200C
:109F400001900020264640360090307C0C9F1D4634
:109F500001280FD001203074FFF710FA0290707CB6
:109F6000616801280DD0CA1FFD3A08D1A1680029F7
:109F700005D102E0022007B0F0BD042801D0022084
:109F8000C3E00498002828D00598002825D0002D8B
:109F900023D0707C042801D00520707400206065F7
:109FA0000599A163E587A58704992163E586A586C0
:109FB0002064606420680168490603D40168402277
:109FC000114301600121E068C9028842606848D1FC
:109FD000002804D0012D02D03CE0012095E0206B48
:109FE00021680088C860206B801C2063E08E401EC2
:109FF000E0862FE020688168890710D5E18E00296E
:10A000000DD0019901290AD1216B0988C160206B0B
:10A01000801C2063E08E401EE086002001902068B6
:10A020008168C9070DD0E18F00290AD0C068A16BF3
:10A030000880A06B801CA063E08F401EE087012099
:10A040000190FFF79BF901460298081AB84201D324
:10A05000781C59D1E08E0028CCD1E08F0028C9D1DE
:10A0600046E0002801D0012D3CD1206B216800780A
:10A070000873206B401C2063E08E401EE08631E0B8
:10A0800020688168890710D5E18E00290DD00199DB
:10A0900001290AD1216B09780173206B401C2063D0
:10A0A000E08E401EE0860020019020688168C9078C
:10A0B0000DD0E18F00290AD0C068A16B0870A06B99
:10A0C000401CA063E08F401EE08701200190FFF755
:10A0D00055F90299401AB84202D3781C02D013E015
:10A0E000002F11D0E08E0028CAD1E08F0028C7D100
:10A0F00039462046029A01F085F9002807D0012050
:10A1000000902020606509E00320009006E0A06830
:10A11000002803D12068C168806801900120707414
:10A1200000203074009826E7094910B5401E884287
:10A1300001D9012010BD074C60610321081F00F008
:10A140003FFF0020A06107202061002010BD00001B
:10A15000FFFFFF0000E000E0F0B502462032137E72
:10A16000012B15D0012717760223537605686C68FA
:10A17000AB687026B4430E68496826438024A34325
:10A1800019436E6000688160577600201076F0BD3C
:10A190000220F0BD70B5040005D025462035687E4C
:10A1A000002802D006E0012070BD0020287620465D
:10A1B00000F00AF802206876211D206802F05AFC9F
:10A1C00001206876002070BD10B500680121890764
:10A1D000884214D10A48816B012211438163002215
:10A1E00011460F20FFF71AF90F20FFF70DF9054967
:10A1F00001200968C0430861024800F005F810BD5D
:10A20000001002405C3600200268D36801210B4335
:10A21000D360006882685207520F062A02D0026893
:10A220000A43026000207047F8B505460446203511
:10A23000287E012817D001262E7602206876226813
:10A2400090687727FF23B8431B02984390600A6801
:10A25000502A31D00EDC202A4BD006DC002A48D010
:10A26000102A3AD145E00220F8BD302A41D0402AD8
:10A2700033D136E0602A27D0702A12D001200003A3
:10A28000121A2AD0824228D1CB684A68896820688D
:10A2900002F024FC2068816801229203114381604E
:10A2A0001BE0CB684A688968206802F017FC2168C7
:10A2B00088683843886010E0CA684968206802F0FE
:10A2C00020FC5021206806E0CA684968206802F036
:10A2D00029FC6021206802F00CFC6E7600202876B4
:10A2E000F8BDCA684968206802F00BFC402120686C
:10A2F000F1E711462068EEE7704770B50446006844
:10A3000001690025C9438907002915DBC168C943D4
:10A31000890711D4E91E0161012020762068806937
:10A320008007204602D0FFF7E7FF04E000F078F84E
:10A33000204600F076F8257620680169C943490770
:10A3400017D4C168C943490713D40421C943016123
:10A3500002202076206880698005800F204602D088
:10A36000FFF7CAFF04E000F05BF8204600F059F860
:10A37000257620680169C943090716D4C168C94315
:10A38000090712D40821C9430161042020762068FE
:10A39000C0698007204602D0FFF7AEFF04E000F05E
:10A3A0003FF8204600F03DF8257620680169C94352
:10A3B000C90617D4C168C943C90613D41021C943BB
:10A3C0000161082020762068C0698005800F204642
:10A3D00002D0FFF791FF04E000F022F8204600F0E1
:10A3E00020F8257620680169C943C90708D1C168EA
:10A3F000C943C90704D1891E0161204600F012F843
:10A4000020680169C943490609D4C168C94349069E
:10A4100005D44021C9430161204600F075F870BDA4
:10A420007047704770B5224988423FD121487D2549
:10A430004078ED00204C002811D06560A16860686C
:10A440000026814214DB207800280BD00022FF2157
:10A4500001311A482270002A06D0002205E0C820E7
:10A460006060EBE70122F2E70122FEF780FFA660C1
:10A47000A068401CA060E068401CE060A84215DBBA
:10A480000F4D2878052806D10E48007800280CD1F9
:10A490000DA0FEF709F92878022806D111480078A6
:10A4A000002802D110A0FEF7FFF8E66070BD0000A2
:10A4B0005C3600200C0100207801002000040050D0
:10A4C0007401002066010020436F6E666967546F57
:10A4D0006F6C2056312E322E322052756E696E67A7
:10A4E000200D0A0011010020416E616C79736973BF
:10A4F000546F6F6C2056332E302E302052756E699B
:10A500006E67200D0A0000007047704770B5416FFC
:10A510000446856F0068826810261206002A14DA45
:10A52000212912D18168802291438160A06E002888
:10A5300008D0FEF72DFD002804D0A06EFEF770FDB8
:10A5400020281DD0204602F03DFC20688168490685
:10A5500014D5222D12D18168402291438160E06E92
:10A56000002808D0FEF714FD002804D0E06EFEF7A6
:10A5700057FD202804D0204602F014FC002070BDB6
:10A58000E667032070BD7047F8B502680446D069DD
:10A590001168936805072D0F5BD0DD07ED0FFF26CF
:10A5A00021360E402E4367D0C60706D0CE0504D50F
:10A5B00001261662E26F3243E26787070222042611
:10A5C000002F06DADF0704D027683A62E76F3743C7
:10A5D000E767470706D5DB0704D023681E62E36FF1
:10A5E0001343E367020709D520220A402A4305D016
:10A5F000236808221A62E36F1343E367E26F002ABD
:10A600002FD0800606D5880604D5216E002901D0FA
:10A6100020468847E06F21688968490601D4000711
:10A6200024D5204602F0BEFB20688168490619D572
:10A630008168402291438160E06E002812D0204959
:10A640008163E06EFEF7C6FC00280AD0E06E816BE5
:10A6500006E0850610D58D060ED5216E1CE020463D
:10A660008847F8BD2046FFF78EFFF8BD2046FFF76C
:10A670008AFF0020E067F8BDC50208D55B0206D559
:10A680000120000510622046FFF73FFFF8BD0306DA
:10A6900005D50B0603D5616E0029E0D1F8BD400653
:10A6A000FCD54806FAD51368204640218B43136039
:10A6B000202161670021616600F09DF9F8BD00006E
:10A6C00001CD000810B5040003D0606F002802D04F
:10A6D00007E0012010BD002170200155204600F048
:10A6E00027F8242060672068016849084900016054
:10A6F000204602F06FFB0128ECD0606A002802D0EF
:10A70000204602F067FA206841680922D20291438C
:10A710004160206881682A22914381602068016835
:10A72000012211430160204602F0BAFA10BD000078
:10A73000F0B587B0054614216846FBF79BFD464FF0
:10A740002B6846480121022203260024BB422FD158
:10A75000436B8F033B434363C36A0B43C362C06ACB
:10A760006B4608400590700255C3042004900520F4
:10A7700069460007FEF734FD3A4F3948BC60FC607B
:10A7800041C7FC603C617C618020BC61B860354899
:10A79000083FFEF79BFC002801D0FEF7B5F9EF66F5
:10A7A000002211461B20BD62FEF738FE1B204FE041
:10A7B0002D4FBB424ED1836B01277F043B43836304
:10A7C000C36A0B43C362C06A6B46C007C00F0590E3
:10A7D0000C2055C304260520694600070496FEF7A1
:10A7E000FFFC204F1E484837BC602830FC6041C742
:10A7F000FC603C617C618020BC61B86038460838F0
:10A80000083FFEF763FC002801D0FEF77DF9EF66F4
:10A81000BD621348134F1430903741C710207C603D
:10A820003860FC603C617C618020BC61B860384667
:10A830000838083FFEF74AFC002801D0FEF764F90B
:10A84000AF66002211461C20BD62FEF7E7FD1C200A
:10A85000FEF7DAFD07B0F0BD0038014000100240FD
:10A86000300002409C3B002000440040F8B5044604
:10A87000806F20284DD100290BD0002A09D0012358
:10A88000A0681B03984206D12069002803D1C8079D
:10A8900001D00120F8BD25466035287C012838D03C
:10A8A000012028745820616502530026E6672220A3
:10A8B000A067E06E002819D01749C162E16E174801
:10A8C0000863E16E16484863E06E13468663676D61
:10A8D00021683A462431E06EFEF740FC002805D09E
:10A8E0001020E0672E7420206067D2E72E74206865
:10A8F0000168FF2201321143016020688168012252
:10A9000011438160206881684022114381600020EA
:10A91000F8BD0220F8BD00005DCD00089BCD000809
:10A9200015CD000870477047FFB50446406F83B0EF
:10A9300017460D4620285CD1002D0AD0002F08D0E4
:10A94000A168C001814207D12069002804D1E8072D
:10A9500002D0012007B0F0BD204660300290007C9C
:10A96000012846D00298012101740020E0672120CF
:10A970006067FEF703FD26464036019037827782F6
:10A980000120A1680003814202D12069002802D081
:10A990002F46002511E000270FE0002280212046ED
:10A9A00002F036FB002815D1002F15D02168387829
:10A9B00088627F1C708A401E7082708A019B00280A
:10A9C00006980090E9D100224021204602F020FBA9
:10A9D000002808D00320BDE728882168C005C00DE5
:10A9E0008862AD1CE6E720206067029900200874A9
:10A9F000B0E70220AEE77047FEE7000070B5052320
:10AA0000FF251B0701350F4C01280FD001222946D5
:10AA10001846FEF7ACFC012229462046FEF7A7FCAB
:10AA2000012202212046FEF7A2FC70BD0022294629
:10AA30001846FEF79CFC002229462046FEF797FCAC
:10AA40000022EEE700040050F0B50A89835C1C0484
:10AA5000431CD35C1B02E418831CD25CA31864243F
:10AA60003A4A63433A4C13601B193A4CA34262D2F0
:10AA70000B89C61C9B5D17469B09203F01240025BE
:10AA8000002B04D0012B04D0022B04D005E03D7133
:10AA900003E03C7101E002233B710B899B5D9B0647
:10AAA00001D4102300E0202393730B899B5DDB0608
:10AAB000DB0E53731F2B3ED20E89031DF65C360648
:10AAC00001D5947600E095760E89F65C7606760FD1
:10AAD000771E042F2FD216750E89F35C1B071B0FF0
:10AAE000DE1F062E27D226469B1F9E40166115713B
:10AAF0000F89431D1E46FB5C04273B4201D0D476E0
:10AB000000E0D5760B899E5D0323B707BF0F022FA8
:10AB100013D03607360F012E10D0D373D3730989A3
:10AB2000831DCB5CC01D085C1B0218180004000CC0
:10AB300006D0042804D20120F0BD0224D473EDE72E
:10AB40001083054805730020F0BD00001030002080
:10AB5000C0A948E481F0FA02900600200FB400B5C5
:10AB6000C5B0FF2211324AA96846FBF76AFB46A826
:10AB70000FC806F039F80006000E07D000210420A7
:10AB8000FDF784F845B008BC04B018470021062042
:10AB9000F6E70000F0B50A89835C1C04431CD35C13
:10ABA0001B02E418831CD25CA3186424474A634345
:10ABB000474C13601B19474CA34272D20B89841D6A
:10ABC0001D5DC41C1C5D461D24062C19051D5D5D04
:10ABD0009B5D2D041B02EB18E41801230025002CBB
:10ABE0000AD013710C89C61DA45DA40906D0012CDE
:10ABF00006D0022C06D007E01571F3E7157103E0CB
:10AC0000137101E0022414710C89A45DA7061024BD
:10AC1000002F01DB947301E02027977394730C8954
:10AC2000A45DE406E40E547300D555730D24145747
:10AC30001E2C01DD1E2454730E8904460934365D32
:10AC4000360601D4957600E093760E89365D760659
:10AC5000760F771E042F32D216750E89345D2407C5
:10AC6000240FA41F072C2AD21E46A64016610C8969
:10AC700006460A36A45D94830F89741C26463C5D03
:10AC800004273C42144F01D0FB7600E0FD760C898E
:10AC9000A45DA407A40F012C04D0022C03D003232D
:10ACA00001E00CE00223D373034609890C33CB5C2B
:10ACB0000D30085C1B02181880B2042801D2002055
:10ACC000F0BD108315730120F0BD0000F02F0020AF
:10ACD000C0A948E481F0FA021030002010B50289C2
:10ACE000FF234168F5330248FFF71EFE10BD000048
:10ACF0001C3B002010B50948074901600021017183
:10AD000041714161816101210162FEF7F1F8002882
:10AD100001D0FDF7F9FE10BD00300240BC35002027
:10AD200008B50C48016B012211430163006B104010
:10AD30000022009011460A20FEF770FB0A20FEF761
:10AD400063FB002211460B20FEF768FB0B20FEF789
:10AD50005BFB08BD00100240F0B587B014216846C7
:10AD6000FBF788FA3548C26A04210A43C262C26A04
:10AD70000A400592C26A80210A43C262C26A0A403E
:10AD80000592C16A01252943C162C16A2940059122
:10AD9000C16A02263143C162C06A00223040059078
:10ADA00029462748FEF7E3FA012202212448FEF74C
:10ADB000DEFAFF210520002211310007FEF7D7FA45
:10ADC000FF21002204311F48FEF7D1FA6803002456
:10ADD00000900194694602941B48FEF701FA03278C
:10ADE000029469461648009701950394FEF7F8F916
:10ADF000052001946946000700960294FEF7F0F9D9
:10AE0000FF201130009005200195694602950394BA
:10AE10000007FEF7E5F9029469460A480097019594
:10AE20000394FEF7DDF9280200900195694602952A
:10AE300003940448FEF7D4F907B0F0BD00100240B7
:10AE4000001C0050000400500008005010B50F48CE
:10AE50000D4901607F2282600021416001614161F2
:10AE6000FF228161C260C161FEF772FF002801D03C
:10AE7000FDF74AFE002211460448FEF7B7FE0028FF
:10AE800001D0FDF741FE10BD00280040E035002054
:10AE900010B50E480C490160FF21053141600021C9
:10AEA0008160C16001614161C161012201625202A0
:10AEB0004162826181620721C162FEF7D1FF0028F1
:10AEC00001D0FDF721FE10BD003001400436002006
:10AED00010B586B000240094012116480194029414
:10AEE00003940494890705940160202184604160E3
:10AEF0007D210461C9004461C160FFF74BF900285E
:10AF000001D0FDF701FE01200003009069460948C9
:10AF1000FFF78AF9002801D0FDF7F6FD049404A993
:10AF200004480594FFF718F9002801D0FDF7ECFD5F
:10AF300006B010BD5C36002010B50C480A4901600F
:10AF4000E1210903416000218160C16001618161EB
:10AF5000C1610C22016242614162FFF7B3FB00282C
:10AF600001D0FDF7D1FD10BD004400401C3B002086
:10AF700010B50524240702212046FEF7F3F9002826
:10AF800014D13220FEF71EF902212046FEF7EAF91D
:10AF90000028F9D0084AFF2110780131022806D094
:10AFA0000120107002462046FEF7E1F910BD042092
:10AFB00010700022F7E700007401002070470000C5
:10AFC0008307FF22DB0E9A408907090E994000286B
:10AFD0000BDA0007000F0838830808489B00181890
:10AFE000C36993430B43C3617047830804489B00C4
:10AFF0001B181868904308431860704700ED00E084
:10B0000000E400E030B5B3B00C460546C821684600
:10B01000FBF730F96A462146284600F033F802284B
:10B0200010D004DC002807D0012804D106E0032852
:10B030000DD0242814D0002033B030BD0A4901209F
:10B0400008700FE00949684600F04AF80AE06846CF
:10B05000017806480A38016005A002F0FDF901E018
:10B0600001F0DEFB0120E7E7110100203A3100206A
:10B0700043545F53656E645F706F7765723A256401
:10B080000A00000070B50546007816460C46EE280A
:10B0900010D10122611E681C00F04CF800280AD073
:10B0A0000021E41E03E0681880787054491CA14216
:10B0B000F9DB687870BD02A002F0CEF9002070BD07
:10B0C000637320657272207265636275665B305DC2
:10B0D00020616464203A202578200D0A00000000D9
:10B0E00070B50D460022815CA954521C082AFADB77
:10B0F00007A002F0B1F90024295D0BA002F0ACF921
:10B10000641C082CF8DB0AA002F0A6F9012070BD2F
:10B1100045554920736574696E672073756363656F
:10B120007373210D0A00000025303220000000005A
:10B130000D0A000030B5002305464C1E1846002AB3
:10B1400006D0012A0BD030BDE95C0818C0B25B1CE8
:10B15000A342F9DB30BDEA5C1018C0B25B1CA3420D
:10B16000F9DB69182039C97F814201D1012030BD46
:10B17000002030BD7047FFB514460121052081B085
:10B180001D460022C9020007FEF7F1F80120687091
:10B1900000276782029E761E2EE0224602990198C1
:10B1A000FDF7B4FC0146FE2829D0FF2924D0002950
:10B1B00004D02A462046FDF715FB1AE060780128E6
:10B1C00006D002280AD003280ED0042811D120E08E
:10B1D0002A462146019800F009FB0AE02A4621464A
:10B1E000019800F077F904E02A462146019800F022
:10B1F000E3FE2846FFF772FD608AB042CDDB0122F4
:10B200000520D1020007FEF7B2F86F70012005B0EB
:10B21000F0BD0121CDE700000FB470B5124B002244
:10B2200099686C46491C99604170197A81700321B4
:10B2300005AD247D05E0AE1836794654491CC9B2E7
:10B24000521C9442F7DC1A7B4254491CC9B21A7C46
:10B250004254491CCCB205A002F0FEF8204670BC56
:10B2600008BC04B0184700002C0100202D2D2D52E1
:10B27000465F526164696F54657374416E732D2D1E
:10B280002D0A000010B542780A7082784A80C27890
:10B2900012024A80002205E083188C181B79521C88
:10B2A0002371D2B20B789342F6D802A002F0D4F800
:10B2B000012010BD2D2D2D526164696F436F6E66A4
:10B2C0005265715F50617273696E672D2D2D0A0092
:10B2D00001090A2200075143000F4018C0B270470D
:10B2E00070B504460068C168490613D40021C943FB
:10B2F000C160FEF743F87D260546F60006E0FEF73E
:10B300003DF8401BB04201D9032070BD2068C068E1
:10B310004006F4D5002070BD00B58BB0002204A912
:10B320001248FEF7E7FC002209A91048FEF7C0FC0E
:10B33000002005210190029000910390142309221E
:10B3400018210BA002F088F86846837C427C017CBF
:10B3500008A8007903936B4607C308A8837942794C
:10B36000C17910A002F078F80BB000BDE0350020E4
:10B37000525443205365742054696D653A25303228
:10B38000782D253032782D253032782025303278CE
:10B3900020253032783A253032783A253032780D0F
:10B3A0000A0000005254432054696D65206E6F7787
:10B3B0003A253032642D253032642D253032642018
:10B3C0002530326420253032643A253032643A2503
:10B3D0003032640D0A00000010B50249022004F06A
:10B3E000BBFB10BD4432002005498A689207FCD59A
:10B3F000C8608868C007FCD0C868C0B27047000049
:10B400000030014038B504464068FF23053320254D
:10B41000984204D100920B460022802107E051207F
:10B42000005D05280DD100920B4600220121204627
:10B4300000F009F8002804D0606D284360650320FF
:10B4400038BD002038BDF8B51D4617460E460446E7
:10B4500009E0681C07D0FDF791FF0699401AA84241
:10B460000BD2002D09D020688168304688432ED049
:10B470000020B842EDD10020F8BD20684168E022EC
:10B48000914341606068C11FFD390CD10121A06862
:10B49000C903884202D04911884204D1206801685A
:10B4A0004022914301600120A16A4003814207D1FB
:10B4B00021680A6882430A6021680A6802430A60B8
:10B4C000012040346074002020740320F8BD012066
:10B4D000CFE77047F7B50546019814460278002774
:10B4E000012166680C2A78D00ADCBB48130002F000
:10B4F00004F80C206666662B2D3446616666A767E5
:10B50000B648122A6AD007DC0D3A130001F0F5FFA5
:10B510000557E6E5E4E35800152A7CD004DC132A3D
:10B520007AD0142A4CD11EE1162A76D0FF2A47D1B0
:10B530002AE12020F071626804251572606841726A
:10B540006168032088723CE0012502E0A2480125E1
:10B5500014300078002872D0FDE09F480325406831
:10B560006421FAF7C5FD000CF0719B486421406826
:10B57000FAF7BEFD6168000A0872974813E0964822
:10B580000325143040686421FAF7B2FD000CF07115
:10B590009148642114304068FAF7AAFD6168000AF6
:10B5A00008728D48143040686421FAF7A1FD616883
:10B5B000487206E001980089285C07280FD9012508
:10B5C00001276168FE200870616848706820616822
:10B5D000002F88707ED09220DAE034E0BDE0F07178
:10B5E00042017D4807252830835C002B16D0636814
:10B5F00016181972616870784872706800280FDA3E
:10B6000040426421FAF78AFD626801149172802336
:10B610001943626809E0A9E0A2E0ADE00021E6E795
:10B620006421FAF77BFD626801149172626801126D
:10B63000D172616808736168307B4873C1E798E034
:10B64000012567487EE06748082500686421FAF70D
:10B650004FFD000CF071634864210068FAF748FD63
:10B660006168000A08725F4864210068FAF740FDCB
:10B67000616848726068002181725A486268007986
:10B680008007000E9072574A927B102A626801D0A0
:10B6900020231843907253486368427B9E7A164376
:10B6A0009E726268D172827E002A01D0802300E0FF
:10B6B00000236268D372027D66681207120E13437C
:10B6C000F3720669102E18D00CDC022E0FD0042E57
:10B6D0000FD004E05BE03AE036E031E02DE0082EE8
:10B6E00010D108E0202E0AD0402E0BD109E007220D
:10B6F00008E0082206E0092204E00A2202E00B2208
:10B7000000E00C2266681343F37263681973C17B0F
:10B71000012904D0022904D0032905D103E0022223
:10B7200002E0012200E0002261680A73008B626877
:10B73000010A51736168887343E70125C07919E0F4
:10B7400029480125007815E00125007801E04078BE
:10B75000012500280DD0F17133E70125C07809E0FB
:10B7600001250079F5E701254079F2E70125807987
:10B77000EFE70020F07124E7018B0225090AF1713F
:10B780006168007E08721CE701258078F2E782205C
:10B790006168C87001986168007808716168280A5A
:10B7A00048716068E91D857162680020505402206C
:10B7B00006E06268535C165C9B19401C535480B2CF
:10B7C0008842F6D32846083062681621115409359C
:10B7D00025810120FEBD0000C82E0020902E0020F3
:10B7E0000C0100201030002088010020FEB5164614
:10B7F0000C4600250978421C2F4600920C2977D070
:10B800000BDC821C01920B0001F077FE0CF42C3152
:10B810003A414A567497F4F49D1F9B4A122968D006
:10B8200007DC0D390B0001F068FE05E5B1B5BCC5BC
:10B83000100015297CD004DC13297AD0142904D1F6
:10B84000D1E0162976D0FF2975D002257168FE2037
:10B8500008707168487068207168002D88706BD01E
:10B860009120F2E007F022F901F044F804E007F03B
:10B870001DF9002001F01CF8844807704770E5E7C7
:10B8800001F0E4F88249012008704870EFE721894F
:10B89000405C002802D001207E4980E07D4809E01C
:10B8A0002189405C002803D07A490120143176E0D8
:10B8B000784814300770C9E72189405C0204009879
:10B8C000085C000212180198085C642110184843B3
:10B8D0007149421871498A4200D30125FAF712FFD3
:10B8E00000226F4BFAF740FDFAF752FF69491DE05D
:10B8F00047E06BE02189405C02040098085C00028C
:10B9000012180198085C64211018484362494218D3
:10B9100062498A4200D30125FAF7F4FE0022604B07
:10B92000FAF722FDFAF734FF5A49143148608DE7DF
:10B9300063E04FE06FE07FE086E02146FCF720FD0A
:10B9400000287DD082E707F0B1F85048012101704E
:10B950004770544807C800F0CBFB4C49052348709A
:10B960000F70FF2101311B07002804D00122184667
:10B97000FDF7FDFC6AE700221846FDF7F8FC0525F7
:10B9800064E72146FFF760F805465FE72189405CE0
:10B99000D0715BE72189405C032851D83C4908708D
:10B9A00054E72189405C002802D0012010704DE747
:10B9B00017704BE72189405C002804D001205070AB
:10B9C0000146BD2024E057700021FAE72189405C40
:10B9D000D0703BE72189405C002802D00120107123
:10B9E00034E7177132E72189405C002803D0012039
:10B9F00050712BE724E0577128E72189405C00282B
:10BA000002D00120907121E7FF209771002134308E
:10BA100004F0ACFC1AE72189009B405CC95C000281
:10BA200040180A2801D20A2004E0012109048842B2
:10BA300000D3481E906109E72189405C010601D5C9
:10BA4000012503E7907001E781207168C870716873
:10BA5000207808717068477171680120887170687A
:10BA6000C57170680772022071680B5C0A7A401C0D
:10BA7000D218C0B20A720828F6D37168162048722C
:10BA80000A2030810120FEBD902E00200C010020F4
:10BA900088010020C82E0020C0A948E481F0FA02E5
:10BAA0000000E03F14010020F8B5A149042004F093
:10BAB00053F8A04E0028306071D0002202219E4829
:10BAC000FDF755FC9D4900209D4F08600FE1FF21C7
:10BAD0002D31484396499B4D40182860FCF7CEFA1B
