:020000040800F2
:1000000088480020D5000008BD4900084544000884
:1000100000000000000000000000000000000000E0
:100020000000000000000000000000001B4E00085F
:100030000000000000000000754B0008AD620008E1
:10004000E7000008E7000008E7000008E7000008F4
:10005000E7000008E7000008E7000008E7000008E4
:1000600000000000E700000879200008892000084F
:10007000E7000008E7000008E7000008A5630008A3
:10008000E7000008E7000008E700000800000000A3
:10009000E7000008E7000008E7000008E7000008A4
:1000A000E7000008E7000008E7000008496A0008C8
:1000B000596A0008E7000008000000000000000086
:1000C0000348854600F0B2FC00480047B1C3000871
:1000D000884800200448804704480047FEE7FEE7C0
:1000E000FEE7FEE7FEE7FEE739630008C10000080F
:1000F00030B50B46014600202022012409E00D46C0
:10010000D5409D4205D31D469540491B2546954047
:1001100040191546521E002DF1DC30BD70B500248B
:100120002546002801DA01244042002901DA012590
:100130004942FFF7DDFFAC4200D04042002C00D026
:10014000494270BDF0B51FB40646002082B0054696
:100150004024019100901BE0019922460F46304651
:1001600000F06CFB049A059B801A994110D310464D
:100170001946224600F03CF8361A8F410197224674
:1001800001200021009F00F033F838184D41009005
:100190002046641E0028DFDC019B00982946324679
:1001A00007B0F0BDF8B500242546002904DA0E4654
:1001B000012400214042B141002B04DA1E460023F5
:1001C00052420125B341FFF7BDFF8C4617461E463C
:1001D000AC4203D0002540428D41AC46002C02D0F9
:1001E000002657429E4161463A46334601B0F0BD73
:1001F00010B5202A04DB0146203A9140002010BDB2
:10020000914020239C1A0346E3401943904010BDBF
:10021000002903DA002340428B4119467047034608
:100220000B439B0703D009E008C9121F08C0042A2A
:10023000FAD203E00B780370401C491C521EF9D21D
:100240007047D2B201E00270401C491EFBD27047D9
:100250000022F6E710B513460A4604461946FFF792
:10026000F0FF204610BD03460A780270401C491C6E
:10027000002AF9D118467047F8B502464A40D40F13
:1002800042004B0052085B089A4202D202460846DE
:1002900011464A0023D0C30D4A00DDB2120EAD1A3A
:1002A000202D35DA49020126490AF6058A19002C63
:1002B00000D0524220214F1B1146B9402A4110184C
:1002C000C20D9A4221D0002C17D0012D08DCDA058E
:1002D000801AD20F8019D207DBB200F0DBFAF8BD2A
:1002E000DA05801A012340001B06C01880185A4204
:1002F0008018CA0F1043490007E04908C20711439C
:10030000DA05801A80194008801800F0BBFAF8BDA1
:1003100061000122511A001BF7E70122D207514068
:10032000AAE70122D2075040A6E7420005D04200CA
:10033000120E52428A4201DB00207047C90508189C
:1003400070470000F0B507460846584087B0C00F18
:10035000049048000E46590040084908BC1A8841DC
:1003600005D2384631461E4617460B46024658000F
:10037000400810434CD0300D039040055900400D0B
:10038000490D0590401A0290402872DA18030121A5
:10039000000B09050843019004980092002805D03D
:1003A0000199524200208841009201900298402118
:1003B0000A1A01990098FFF71BFF05460C466B4689
:1003C00007CB00F04CFAC0197141039A0E0D0023BF
:1003D000D71756401A467A40164344D0049A002A4A
:1003E0002DD0029A012A039A15DC1205C01A9141F8
:1003F00001263605001C7141D20F059ED2070093DD
:10040000019202962A46234600F08AFA07B0F0BD10
:1004100038463146FAE71605224A0F46B218C01A86
:10042000B74101210905001C4F4100187F411146C9
:1004300018187941E20F10436D19644113E0E20787
:100440006D0815436408C2071443039A0126120578
:10045000C01A91413605001C7141CE074008304357
:100460004908C01851412A46234600F04CFACDE70E
:10047000FFE7049801224000C117121A00238B41A4
:1004800004983146C417381AA141EEE730B401246C
:10049000E407634030BC55E730B40124E407614011
:1004A00030BC4FE70000E0FFF0B51FB488B00B99F7
:1004B0000998002448400999C00F4900490809914A
:1004C000C0070B990090490049080B9109990898B9
:1004D000A64608431CD00B990A98084318D00998DF
:1004E00001244000420D4800410D099824050003F5
:1004F000000B204309900B980003000B20430B9046
:1005000050181C494018002201901446104605E07E
:10051000002001460DB0F0BD032801DA034600E0DB
:1005200003239C46C11A0AAE0AE05F0008ADED5BEA
:100530004F00F75B7D430027AA187C41491C5B1ED6
:100540006145F2DD410004AB5A522104120C0A430A
:10055000240C401C0828DFDB0198029000997046AB
:1005600001910090059B049A0799069800F0D8F92C
:10057000D0E700000DFCFFFFF0B50C465C4085B0F5
:10058000E40FE40703944C000026640859009446E5
:10059000490802460296224321D062460A431ED0F1
:1005A0006200570D4A000E032303550D0124024635
:1005B0002C492405781B1B0B360B4018234326437C
:1005C000614600901C46501AB44103D30098401C69
:1005D000009002E0921800985B41002803DA0020A6
:1005E000014605B0F0BD00200121090507468646F9
:1005F00011E064461D46141BB54106D36546521BE7
:10060000B341744607430C43A646CD07400849084A
:10061000284392185B4105460D43EAD11046184322
:1006200013D06046194650407140084306D06046DA
:10063000101AB34106D20122002306E00022012352
:10064000DB0702E00122D2435310009874460105F3
:10065000381C6141029C039D0019694100F053F967
:10066000BFE70000FD03000070B54B005B080343CB
:100670000BD04B005C0D002633466542B341D417C6
:10068000AD1AA34102DB0020014670BD12053018EF
:10069000514170BDC217C10F504010B54018CA0774
:1006A0009623002100F0F6F810BD10B50022962325
:1006B000114600F0EFF810BD0EB5C217C10F504043
:1006C000CA0740180021054B0293019200910A4687
:1006D0000B4600F025F903B000BD00003304000014
:1006E0000EB505490291002100910A460B46019181
:1006F00000F016F903B000BD33040000C20F410042
:1007000040020123400ADB05D207090EC0187F29E9
:1007100001DA00207047962903DC9623591AC84055
:1007200001E096398840002AF4D0404270474100E9
:1007300040020122400AD205090E80187F2901DA01
:1007400000207047962903DC9622511AC840704752
:10075000963988407047000070B5CD0F4A000903F4
:100760000123090B1B0519430B4BED070024520D08
:100770009A4201DA002070BD074B34339A4203DC01
:100780009A1A00F05BF802E00449511888402C43A3
:10079000F1D0404270BD0000FF030000CDFBFFFF21
:1007A0004A0009030123090B1B051943094B10B526
:1007B000520D9A4201DA002010BD064B34339A42A2
:1007C00003DC9A1A00F03AF810BD0349511888402A
:1007D00010BD0000FF030000CDFBFFFFC20FD207DA
:1007E000400040080BD0C10D0723DB01C9184002AF
:1007F0000905400A1143C208400711437047002011
:1008000001467047CB0FDB07490010B54908024687
:100810000A4307D00A0D07240903E401090B121B40
:10082000002A01DC002010BDC900440F0C43C100A8
:10083000E018D205801800F025F810BD10B5202A68
:1008400004DB0846203AD040002110BD0B46D340BF
:10085000D0402024A21A91400843194610BD10B57B
:10086000202A06DBCB170846203A1041C1170B435C
:1008700006E00B461341D0402024A21A91400843C1
:10088000194610BD002904DA401C490001D1400876
:100890004000704770B40024050C05D110240004FA
:1008A00002D1002921D01124050E01D10002083403
:1008B000050F01D10001241D850F01D18000A41C6A
:1008C000002801DB4000641C002908D020252E1BD5
:1008D0000D46F540A14000D00121294308430106FF
:1008E0001B1B000ADB1D02D5002070BC7047DB0516
:1008F000181880180029F8DA401C4900F5D170BC9E
:1009000040084000704710B5002B08DA0024401C56
:10091000614192185B411A4301D14008400010BD6B
:10092000F0B51FB482B005460C0003D0084606F0AF
:10093000B7FA02E006F0B4FA2030024600902146F1
:100940002846FFF755FC049B059A04460F461843BA
:100950001143084314D0184610431BD0009840217F
:100960000A1A18460599FFF769FF05460E46009AD0
:1009700005990498FFF73CFC084305D0012004E0EA
:100980002046394607B0F0BD0020C11705430E438D
:100990002C43374300990E986305401A7905E40A01
:1009A00000220C43FD0A0A3002D500200146E9E787
:1009B0000105101969410C9C0D9D00196941FFF753
:1009C000A2FFDFE74A0009030123090B1B051943B6
:1009D0000A4B10B5520D9A4202DA0020014610BDB2
:1009E000064B34339A4203DC9A1AFFF727FF10BDF7
:1009F000034BD218FFF7FCFB10BD0000FF03000003
:100A0000CDFBFFFF10B5002904DB0124E4074042C1
:100A10008C412146002B04DB1C460123DB0752429C
:100A2000A341994200D1904210BD0000064C01251F
:100A3000064E05E0E36807CC2B430C3C9847103486
:100A4000B442F7D3FFF740FBEC5D01080C5E0108F0
:100A5000FEB500231A461B1A8A4103DB002001461B
:100A600003B0F0BD4A000D0301212D0B0905520D05
:100A70000D43D10702D100186D41521E5110FF31B4
:100A8000FF310131002704463E4638460097019168
:100A90000246012100200905FFF7D0FEC31971416C
:100AA000F818324684468E464A4161462846611A05
:100AB000904104D36046241A954176461F46241976
:100AC00000986D41401C00903428E1DDF919304652
:100AD0007041091BA84103D20022D243134601E012
:100AE0000022134601980105381C7141FFF70BFFE6
:100AF000B6E770B58C180578401C6B075B0F01D109
:100B00000378401C2A1106D10278401C03E00678C5
:100B10000E70401C491C5B1EF9D12B0705D4002325
:100B2000521E0DD40B70491CFAE70378401CCB1AF7
:100B3000921C03E01D780D70491C5B1C521EF9D5F8
:100B4000A142D8D3002070BDF0B5002687B034464E
:100B5000FE480078002808D0FD494879112803D0C4
:100B60002C20405CC20602D0002007B0F0BDF94F37
:100B700041093870C2063973520F80077A73800FAB
:100B8000F54DB87328461830069018300590183087
:100B900004901830039018300290183001901830EB
:100BA000009006297ED24B007B449B885B009F44CB
:100BB0000500F3005802920329058D06E7A006F010
:100BC00035F9FF22E2492D320020564371180A18E8
:100BD0003B182032401C527BC0B25A740828F6D30E
:100BE00000200A183B182032401C527DC0B25A76B1
:100BF0000828F6D300200A182032537F3A182032F2
:100C0000401CC0B253700228F5D300200A182032CD
:100C1000D37F3A182032401CC0B2D3710428F5D3D8
:100C2000D5490020182242435218127D401C121947
:100C3000C0B2D4B20528F5D3A41DE5B2002404E067
:100C4000CEA006F0F3F8641CE4B2AC42F8D3C9A01D
:100C500006F0ECF8CAA006F0E9F8C749C9A006F00A
:100C6000E5F8C7A006F0E2F8C349C7A0183106F0BE
:100C7000DDF8C3A006F0DAF8BF49C3A0303106F0B2
:100C8000D5F8BFA006F0D2F8BB49C1A0483106F0A4
:100C9000CDF8BBA006F0CAF8B749BDA0603106F098
:100CA000C5F800E076E0B6A006F0C0F8B1A006F006
:100CB000BDF8002404E0B1A006F0B8F8641CE4B26A
:100CC000AC42F8D3ABA006F0B1F8B3A006F0AEF892
:100CD000B2A006F0ABF83978B2A006F0A7F8A8A049
:100CE00006F0A4F8B1A006F0A1F800240726301BF6
:100CF000C019417CABA006F099F8641CE4B2082C42
:100D0000F5D39FA006F092F8A8A006F08FF8002473
:100D1000301BC019417EA3A006F088F8641CE4B221
:100D2000082CF5D396A006F081F8A1A006F07EF875
:100D300000240126301BC0192030417899A006F00C
:100D400075F8641CE4B2022CF4D38DA006F06EF8A2
:100D500096A006F06BF800240326301BC019203043
:100D6000C17990A006F062F8641CE4B2042CF4D3BC
:100D700089A006F05BF87FA006F058F8002404E094
:100D80007EA006F053F8641CE4B2AC42F8D379A01C
:100D900006F04CF80120E8E687A006F047F8FF22AD
:100DA0006B492D320020564371180A182032537BAC
:100DB0003A182032401CC0B2D3720328F5D3002069
:100DC0000A182032137C3A182032401CC0B213712A
:100DD0000328F5D300200A182032D37C3A18203299
:100DE000401CC0B293730428F5D37A4800680818F1
:100DF0002030C27DBA70007EF870488D0D38C2B2C6
:100E0000002007E00B1820333D1820355B7E401C86
:100E1000AB74C0B29042F5D3574900207831182204
:100E200042435218127D401C1219C0B2D4B2072896
:100E3000F5D30834E5B2002404E050A005F0F6FF35
:100E4000641CE4B2AC42F8D34AA005F0EFFF4CA01A
:100E500005F0ECFF48494BA0783105F0E7FF48A0CA
:100E600005F0E4FF3C494AA0903905F0DFFF44A0BB
:100E700005F0DCFF384958A0783905F0D7FF40A0CD
:100E800005F0D4FF344942A0603905F0CFFF3CA003
:100E900005F0CCFF304951A0483905F0C7FF38A014
:100EA00005F0C4FF2C493AA0303905F0BFFF34A04B
:100EB00005F0BCFF28494BA0183905F0B7FF30A05A
:100EC00005F0B4FF2BA005F0B1FF002404E02BA037
:100ED00005F0ACFF641CE4B2AC42F8D325A005F0E9
:100EE000A5FF2DA005F0A2FF397840A005F09EFFD8
:100EF00023A005F09BFF29A005F098FF00240226FF
:100F0000301BC0192030C17A26A005F08FFF641C69
:100F1000E4B2032CF4D31AA005F088FF23A005F057
:100F200085FF0024301BC019203001791DA005F079
:100F30007DFF641CE4B2032CF4D311A005F076FF0E
:100F40001AA005F073FF0024032651E0682E00204C
:100F5000B8010020142D0020D8520108232323209B
:100F60006A6F696E207265717565737420636F6D49
:100F70006D616E640A000000B85101082D00000088
:100F80007C00000025367300253138730000000016
:100F900025313073000000002400000020202020B4
:100FA0000000000025303258000000002020000022
:100FB0002020202020200000232323206A6F696E38
:100FC0002061636365707420636F6D6D616E640A88
:100FD0000000000024000020253873002531327302
:100FE0000000000025333273000000002536580051
:100FF000301BC0192030817BFE4805F017FF641CB0
:10100000E4B2042CA1D3FCA005F010FFB978FBA03A
:1010100005F00CFFF8A005F009FFF978F9A005F03C
:1010200005FFF5A005F002FF00240F26301BC019B4
:101030002030817CEF4805F0F9FE641CE4B2102CEE
:10104000F4D3F2A005F0F2FEF1A005F0EFFE0024CB
:1010500004E0F0A005F0EAFE641CE4B2AC42F8D370
:1010600095E6EDA005F0E2FEFF202D304643F34863
:101070000021301842187B1820322033491C527B43
:10108000C9B29A730429F5D302462032517C3971D2
:10109000CB09DB017B7140230B40BB7120230B404C
:1010A000FB7110230B4009077B73090F3972917C88
:1010B000D27C120289187981002107E0421820327F
:1010C0007B184033127D491C9A70C9B23A7A8A4221
:1010D000F4D8D1B2D94A34368A18925D7A700A4669
:1010E0000932FA73428D511A0D39397400210423E3
:1010F0005B1AD31A7E181B1820332036491C1B7B21
:10110000C9B2F3710429F2D30020182141434919CF
:10111000097D401C0919C0B2CCB20828F5D30934A6
:10112000E6B2002404E0BBA005F080FE641CE4B23B
:10113000B442F8D3B6A005F079FEAFA005F076FE74
:10114000AC48BF49203805F071FEABA005F06EFE3B
:10115000A8480699143805F069FEA7A005F066FEB8
:10116000A4480599203805F061FEA3A005F05EFEB5
:10117000A0480499203805F059FE9FA005F056FEBE
:101180009C480399403005F051FE9BA005F04EFEAF
:10119000ACA0029905F04AFE97A005F047FEAAA070
:1011A000019905F043FE94A005F040FE9148009996
:1011B000143805F03BFE90A005F038FE94A005F031
:1011C00035FE002404E093A005F030FE641CE4B278
:1011D000B442F8D38EA005F029FE8CA005F026FEBF
:1011E00084483978483005F021FE83A005F01EFEC2
:1011F00097A005F01BFE00240325281BC0192030F2
:10120000817B7C4805F012FE641CE4B2042CF4D30C
:1012100079A005F00BFE77483979483005F006FED5
:1012200075A005F003FE79898AA005F0FFFD72A084
:1012300005F0FCFD387A002810D085A005F0F6FDF9
:1012400000240E20001BC01940308178694805F049
:10125000EDFD641CE4B20F2CF3D308E07EA107C9B6
:101260006B4607C363486946403005F0DFFD62A066
:1012700005F0DCFD79787BA005F0D8FD5EA005F0D7
:10128000D5FD79A30FCB6C460FC469466EA005F05F
:10129000CDFD59A005F0CAFD6DA005F0C7FD0024E5
:1012A000281BC0192030C179524805F0BFFD641CCD
:1012B000E4B2042CF4D355A005F0B8FD54A005F019
:1012C000B5FD002404E053A005F0B0FD641CE4B2B9
:1012D000B442F8D35BE568A005F0A8FDFF202D30EF
:1012E000464356480021301842187B1820322033DC
:1012F000491C527BC9B29A730429F5D302462032A5
:10130000517C3971CB09DB017B7140230B40BB71F0
:1013100020230B40FB7110230B4009077B73090F3F
:101320003972917CD27C120289187981002107E000
:10133000421820327B184033127D491C9A70C9B282
:101340003A7A8A42F4D8D1B23C4A34368A18925D4D
:101350007A700A460932FA73428D511A0D3939747E
:10136000002104235B1AD31A7E181B182033203661
:10137000491C1B7BC9B2F3710429F2D30020182148
:1013800041434919097D401C0919C0B2CCB2082853
:10139000F5D30934E6B2002404E01EA005F046FDB2
:1013A000641CE4B2B442F8D319A005F03FFD12A0CA
:1013B00005F03CFD0F482249203805F037FD0EA00E
:1013C00005F034FD0B480699143805F02FFD0AA0EE
:1013D00005F02CFD07480599203805F027FD06A0EB
:1013E00005F024FD03480499203805F01FFD02A0F4
:1013F00054E00000A40F00087C0000002531326496
:1014000000000000253130640000000024000000CE
:101410000A0000002D00000023232320756E636F57
:101420006E6669726D6564206461746120757020F8
:10143000636F6D6D616E640A00000000B8010020EA
:10144000D85201082537730025313673000000009B
:1014500020200000253664006E6F20464F707473A4
:101460000000000025376400456E63727970746572
:10147000642064617461000023232320756E636F10
:101480006E6669726D6564206461746120646F7753
:101490006E20636F6D6D616E640A000005F0C6FC1E
:1014A000F948039905F0C2FCF8A005F0BFFCF84824
:1014B000029905F0BBFCF5A005F0B8FCF4480199D1
:1014C000001D05F0B3FCF1A005F0B0FCEE4800995A
:1014D000543805F0ABFCEDA005F0A8FCEDA005F03C
:1014E000A5FC002404E0ECA005F0A0FC641CE4B220
:1014F000B442F8D3E7A005F099FCE8A005F096FC0B
:10150000E1483978083005F091FCE0A005F08EFC48
:10151000E3A005F08BFC00240325281BC019203014
:10152000817BD948403805F081FC641CE4B2042C6E
:10153000F3D3D6A005F07AFCD3483979083005F00A
:1015400075FCD2A005F072FCD1487989103005F005
:101550006DFCCEA005F06AFC387A002811D0D0A02E
:1015600005F064FC00240E20001BC0194030817877
:10157000C548403805F05AFC641CE4B20F2CF2D385
:1015800008E0C34A6B46143207CA07C36946BE481F
:1015900005F04CFCBDA005F049FCBD487978203031
:1015A00005F044FCB9A005F041FCB94B6C4624336E
:1015B0000FCB0FC4B6486946001D05F037FCB3A039
:1015C00005F034FCB6A005F031FC0024281BC0193E
:1015D0002030C179AC48403805F028FC641CE4B2E6
:1015E000042CF3D3ADA005F021FCAAA005F01EFC4D
:1015F000002404E0A8A005F019FC641CE4B2B44285
:10160000F8D32DE5A7A005F011FCFF202D304643AF
:10161000AC480021301842187B1820322033491C76
:10162000527BC9B29A730429F5D302462032517C09
:101630003971CB09DB017B7140230B40BB71202347
:101640000B40FB7110230B4009077B73090F3972A4
:10165000917CD27C120289187981002107E042181E
:1016600020327B184033127D491C9A70C9B23A7AF5
:101670008A42F4D8D1B2934A34368A18925D7A708D
:101680000A460932FA73428D511A0D393974002114
:1016900004235B1AD31A7E181B1820332036491CEA
:1016A0001B7BC9B2F3710429F2D3002018214143F6
:1016B0004919097D401C0919C0B2CCB20828F5D3DC
:1016C0000934E6B2002404E073A005F0AFFB641C0B
:1016D000E4B2B442F8D36FA005F0A8FB6BA005F00C
:1016E000A5FB69487849603805F0A0FB67A005F0C4
:1016F0009DFB65480699543805F098FB63A005F0FA
:1017000095FB61480599603805F090FB5FA005F0F6
:101710008DFB5D480499603805F088FB5BA005F0FF
:1017200085FB5948039905F081FB58A005F07EFB25
:101730005748029905F07AFB54A005F077FB54480E
:101740000199001D05F072FB50A005F06FFB4E489B
:101750000099543805F06AFB4CA005F067FB4DA0DA
:1017600005F064FB002404E04BA005F05FFB641C63
:10177000E4B2B442F8D347A005F058FB47A005F007
:1017800055FB41483978083005F050FB3FA005F083
:101790004DFB43A005F04AFB00240325281BC0197C
:1017A0002030817B3848403805F040FB641CE4B2AF
:1017B000042CF3D335A005F039FB334839790830D0
:1017C00005F034FB31A005F031FB31487989103048
:1017D00005F02CFB2DA005F029FB387A002811D04C
:1017E0002FA005F023FB00240E20001BC019403061
:1017F00081782548403805F019FB641CE4B20F2CB1
:10180000F2D308E0224A6B46143207CA07C369467E
:101810001D4805F00BFB1DA005F008FB1C4879785E
:10182000203005F003FB19A005F000FB184B6C46B7
:1018300024330FCB0FC416486946001D05F0F6FA95
:1018400012A005F0F3FA16A005F0F0FA0024281B08
:10185000C0192030C1790C48403805F0E7FA641C03
:10186000E4B2042CF3D30DA005F0E0FA09A005F0D2
:10187000DDFA002404E008A005F0D8FA641CE4B204
:10188000B442F8D326E50000E40F00087C00000015
:10189000441400080A0000002D000000240000008D
:1018A0002020000023232320636F6E6669726D651C
:1018B00064206461746120757020636F6D6D616E6A
:1018C000640A0000B8010020D85201089FA005F06A
:1018D000ADFAFF202D304643A348002130184218AE
:1018E0007B1820322033491C527BC9B29A730429D9
:1018F000F5D302462032517C3971CB09DB017B7173
:1019000040230B40BB7120230B40FB7110230B4085
:1019100009077B73090F3972917CD27C12028918F6
:101920007981002107E0421820327B184033127D74
:10193000491C9A70C9B23A7A8A42F4D8D1B28A4A1A
:1019400034368A18925D7A700A460932FA73428DEB
:10195000511A0D393974002104235B1AD31A7E18E9
:101960001B1820332036491C1B7BC9B2F371042994
:10197000F2D30020182141434919097D401C09195F
:10198000C0B2CCB20828F5D30934E6B2002404E092
:1019900076A005F04BFA641CE4B2B442F8D374A00C
:1019A00005F044FA73A005F041FA7349734805F055
:1019B0003DFA70A005F03AFA704806990C3005F02F
:1019C00035FA6CA005F032FA6C48059905F02EFA4C
:1019D00068A005F02BFA6948049905F027FA65A07C
:1019E00005F024FA65480399603005F01FFA61A0FC
:1019F00005F01CFA6248029905F018FA5DA005F09E
:101A000015FA5F480199001D05F010FA59A005F07C
:101A10000DFA5A4800990C3005F008FA55A005F067
:101A200005FA53A005F002FA002404E04FA005F0E7
:101A3000FDF9641CE4B2B442F8D34DA005F0F6F908
:101A400050A005F0F3F94D483978683005F0EEF90B
:101A500048A005F0EBF94CA005F0E8F900240325B7
:101A6000281BC0192030817B4448203005F0DEF966
:101A7000641CE4B2042CF3D33EA005F0D7F93F4830
:101A80003979683005F0D2F93AA005F0CFF93C4831
:101A90007989103005F0CAF936A005F0C7F9387A0F
:101AA000002810D038A005F0C1F900240E20001B3A
:101AB000C0194030817835A005F0B8F9641CE4B253
:101AC0000F2CF3D309E02E4A6B46143207CA07C322
:101AD0002A486946603005F0A9F926A005F0A6F964
:101AE00027487978203005F0A1F922A005F09EF969
:101AF000234B6C4624330FCB0FC421486946001D8D
:101B000005F094F91BA005F091F91FA005F08EF9DE
:101B10000024281BC0192030C1791848203005F056
:101B200085F9641CE4B2042CF3D316A005F07EF909
:101B30000FA005F07BF9002404E00CA005F076F975
:101B4000641CE4B2B442F8D35BE5000023232320F5
:101B5000636F6E6669726D656420646F776E206373
:101B60006F6D6D616E640A00B80100202D000000E9
:101B70000A0000007C000000D8520108840F000811
:101B80004414000824000000202000002530327892
:101B90000000000070B5254C00252078012813D1E5
:101BA00023480268234801682348006803F042FF85
:101BB000FF210523607001311B072570002807D025
:101BC0000122184601F023F96078012802D003E0D1
:101BD0000022F6E703F0D0FD184C2078012823D12D
:101BE0002179FE2905D02046EE290BD063290ED09D
:101BF00019E013486188036812480268201D02F04A
:101C0000BAFF10E08178201D02F0FCFE0BE0417964
:101C10006F2908D181796E2905D1E0796E2802D12A
:101C2000094901200870257070BD00000C010020DA
:101C30001C01002018010020140100207036002033
:101C400020010020240100201101002010B50F48C0
:101C5000602181700F2181610121C17000244472D3
:101C600005210B48FEF7F4FA012004F023FA0022C4
:101C70000121084801F0CBF8142000F0F3FF04F034
:101C800071FA02F0EDFF0448047010BD682E0020C8
:101C90000C0100200004005011010020F8B50E4690
:101CA000074600252C4606210C48FEF7D1FA0B48C2
:101CB000F5210170FF2141708770C67001194978C4
:101CC000641C4919E4B2CDB2032CF7D305715F212E
:101CD00041710621014804F0FBFEF8BD30010020EF
:101CE00000220A60827812064A60C3781B04D21868
:101CF0004A6003791B02D2184A604379D2184A60BD
:101D000082790A72C2790A700849027A0A70427AA4
:101D10004A70827A8A70C27ACA70027B0A71427BE8
:101D20004A71827B8A71C07BC8717047360100207E
:101D3000F0B50A89825C072A4CD85301284A00244E
:101D4000D4540E89451C755D0126002D08D0D6544B
:101D50000D89871CED5D002D04D0012D05D039E0E3
:101D6000D454F5E79D186C7001E09C1866700D89DD
:101D7000C41CAC462D5D00272E0604D501276D0638
:101D80006D0E664635550D89061DAE5D2C5D36021D
:101D900024043419461DAD5D641964256C43114D4E
:101DA000AC4217DC002F00D064429A1854600989B5
:101DB000801D085C10280FD006DC02280CD00428F7
:101DC0000AD0082806D107E0202805D0402803D0F3
:101DD0007E2801D00020F0BDD0600120F0BD0000C1
:101DE000C82E0020404B4C0070B54178012907D027
:101DF000022908D003290BD00EA005F017F817E030
:101E00001723174A02E0164A15238A3200210DE0F3
:101E10000523144A002106244C430578145DA5428D
:101E200002D1C180012070BD491CC9B29942F2D3D0
:101E3000002070BD0A204672616D6520666F726D6C
:101E4000617420436865636B203A4552524F5220BB
:101E50004374726C20436F64655B25645D200A00E7
:101E6000A6530108AE54010810B54178012904D0E9
:101E700002290CD0032908D114E0C188062251435D
:101E80000E4A09E00EA004F0D1FF002010BDC18869
:101E900006225143094A8A3289184A8841898A426E
:101EA00009D0EFE7C18806225143134A89184A88AE
:101EB00041898A42E6D3012010BD0000A6530108E3
:101EC0000A204672616D6520666F726D61742043F1
:101ED0006865636B203A4552524F523E3E446174EE
:101EE000616C656E3A20256420697320696E7661A5
:101EF0006C69640A00000000AE54010870B50B4C18
:101F0000102520680562022000F0ACFE2168402008
:101F1000086202010649204602F0CEF920680168F5
:101F2000294301602068056270BD0000F43A00207A
:101F30007436002010B500231A4604E0845CE318D0
:101F4000521CDBB292B28A42F8D3405C984201D173
:101F5000012010BD0020C04310BD000010B50120BD
:101F600004F0A8F800220121064800F050FF1420D8
:101F700000F078FE04490020487004498870012070
:101F800010BD0000000400500C01002040010020A2
:101F9000F0B5C5B0002424A004F048FF294D2A4E16
:101FA0002878012833D100F091F800212970317888
:101FB000012936D112282DD1FF212448FEF748F9F6
:101FC000224970781E39224A401C04E0135D0F1923
:101FD000641CBB77E4B28442F8D368881D4C801E31
:101FE000888300220221204600F011FF1749FF22BA
:101FF00011320E396846FEF712F914481E380FC820
:1020000002F0D2FA01220221204600F000FF3078CF
:10201000012806D102F084FE0006000E01D005F072
:10202000E7FC45B0F0BD0000436F6E666967546F12
:102030006F6C2056312E322E322052756E696E67CB
:102040002000000070360020400100209234002063
:102050001C310020000400500FB400B5A1B023AB28
:1020600080216846229A04F005FF684604F002FDCC
:1020700021B008BC04B0184710B5024800F022FD9A
:1020800010BD0000743B002010B5034800F01AFD9D
:10209000024800F017FD10BD043C0020BC3B0020AE
:1020A00030B5446C1C252C400125A540046C6560AE
:1020B000046863608368102B036803D0996000682C
:1020C000C26030BD9A600068C16030BDF8B52D4C6B
:1020D00000256188201D491E89B2FFF72BFFC0B281
:1020E00001284AD1201D00F005FC274EC5B23078EA
:1020F000012801D1122D04D0112D16D0002836D080
:1021000037E0FF2101312148FEF7A2F860881F4A1D
:102110000146801E7070002004E023181B791354C0
:10212000401CC0B28142F8D827E000203070014640
:10213000FFF7B4FD60790127012802D002281CD1E5
:1021400013E01149201D091DFFF7CAFD04F074FDBD
:10215000012802D0C1B203200DE000210120FFF7C9
:102160009DFD0B483770477007E0B77005E0122DF2
:1021700005D000210520FFF791FD2846F8BD00217C
:102180000220F8E770360020400100201C310020BA
:102190000C010020704710B55468FE23237054686A
:1021A000637054686823A370437854689033E37075
:1021B00053680078187153680020587154680123DF
:1021C000A3715368D97151680872022051680C5C80
:1021D0000B7A401C1B19C0B20B720828F6D3516849
:1021E000162048720A201081012010BDFEB5924AC7
:1021F0006C460DCA0DC40021904A0846182343437B
:102200009B189B8A401C591880B289B20A28F5D3C2
:102210000B3100258EB22C4604E089A004F006FEA6
:10222000641CA4B2B442F8D386A004F0FFFD86A0DB
:1022300004F0FCFD814985A004F0F8FD82A004F0C3
:10224000F5FD7E4981A0183104F0F0FD7EA004F078
:10225000EDFD7A497DA0303104F0E8FD7AA004F06C
:10226000E5FD764979A0483104F0E0FD76A004F060
:10227000DDFD724975A0603104F0D8FD72A004F054
:10228000D5FD6E4971A0783104F0D0FD6EA004F048
:10229000CDFD6A496DA0903104F0C8FD6AA004F03C
:1022A000C5FD664969A0A83104F0C0FD66A004F030
:1022B000BDFD624965A0C03104F0B8FD62A004F024
:1022C000B5FD5E4961A0D83104F0B0FD5EA004F018
:1022D000ADFD5CA004F0AAFD002404E058A004F0C9
:1022E000A5FD641CA4B2B442F8D356A004F09EFD30
:1022F00058A004F09BFDFF202D304543564F57A0BA
:10230000EC19217904F092FD4FA004F08FFD79596A
:1023100052A004F08BFD4CA004F088FD2069102829
:1023200011D006DC022808D0042808D0082804D1DF
:1023300007E0202809D0402809D0072108E008211B
:1023400006E0092104E00A2102E00B2100E00C2153
:1023500042A004F06BFD3CA004F068FD618D3FA03D
:1023600004F064FD38A004F061FD207D012805D053
:10237000022805D003284BD004284BD039A100E017
:102380003BA16846FDF76FFF694630A004F04EFDA3
:102390002DA004F04BFD607910283DD011283ED0CF
:1023A00036A12AA004F042FD27A004F03FFDE06919
:1023B000FEF714FA02460B4632A004F037FD22A0C5
:1023C00004F034FD206AFEF709FA02460B462DA000
:1023D00004F02CFD1CA004F029FD606AFEF7FEF954
:1023E00002460B4627A004F021FD17A004F01EFDB5
:1023F000A069FEF7F3F902460B4622A004F016FD91
:1024000014A004F013FD0FA004F010FD00240DE053
:102410001EA1B6E720A1B4E7218D22A0C2E723A127
:10242000BFE707A004F002FD641CA4B2B442F8D3D5
:1024300004A004F0FBFCFEBD98530108C85001083D
:102440002D0000000A0000007C00000025313073E0
:102450000000000040000000B80100202531306479
:102460000000000043523128342F352900000000BD
:1024700043523228322F3329000000006E6F204370
:10248000524300002531302E31660000435233287C
:10249000342F37290000000043523428312F3229CD
:1024A0000000000025313058000000004352432056
:1024B0006572726F720000007047000010B5134C17
:1024C0002078012817D112A004F0B0FC1648026849
:1024D000164801681648006803F0ACFA60700021E5
:1024E0002170FF21052301311B07002807D001229D
:1024F000184600F08CFC6078012802D003E000222E
:10250000F6E703F039F90AF0CBFC10BD0C0100200E
:10251000535831333031205374617274696E672EB1
:102520002E2E0D0A000000001C01002018010020C2
:102530001401002010B5134C2078012817D112A0E7
:1025400004F074FC164802681648016816480068D2
:1025500003F070FA607000212170FF210523013122
:102560001B07002807D00122184600F050FC6078B5
:10257000012802D003E00022F6E703F0FDF80AF09C
:102580008FFC10BD0C0100205358313330312053E3
:1025900074617274696E672E2E2E0D0A00000000A1
:1025A0001C010020180100201401002070B5054610
:1025B000508A144600260A1A072A03DA401C608251
:1025C0004FA021E001229202914203D9401C608277
:1025D00059A02DE0664AA28004E02B5C682B09D04C
:1025E000401C80B28842F8D3A088904205D1618215
:1025F00060A009E0A0806082F6E70A1A072A07DADD
:10260000608A401C608266A004F010FCFE2070BD51
:10261000EA1C825C2B1DC35C1202D21892B262814A
:102620008218D31D8B4206D9608A401C60826AA042
:1026300004F0FCFB39E0A91D515C162904D0608A26
:10264000401C608274A0F3E7811C89B2E1806A5C5F
:1026500022706A1C825C401C6270A070C91C2181BF
:10266000784900200B5C9A4216D12046FFF7BCFB4C
:1026700000281CD02046FFF7F7FB00281FD0A088B9
:1026800061894118491D89B24A1C92B2A181131A6D
:10269000E2815B1C23821CE0401CC0B20328E1D312
:1026A000608A401C608268A0C2E7FF2070BD608A1B
:1026B000401C6082217871A004F0B8FBF5E7608AC5
:1026C000401C6082062070BD2B5C9B19401CDEB252
:1026D00080B28142F8D8685CB04207D0608A401C62
:1026E000608273A004F0A2FB032070BD7A49012030
:1026F0004870628279A004F099FB002070BD000050
:102700000A204672616D6520666F726D61742043A8
:102710006865636B203A4552524F523E3E66726185
:102720006D65206C656E20697320746F6F2073680F
:102730006F72740A000000000A204672616D652005
:10274000666F726D617420436865636B203A455211
:10275000524F523E3E6672616D65206C656E206917
:102760007320746F6F206C6F6E67200A000000008A
:10277000FFFF00000A204672616D6520666F726D72
:10278000617420436865636B203A4552524F523E54
:102790003E6E6F742066696E6420307836380A00A9
:1027A0000A204672616D6520666F726D6174204308
:1027B0006865636B203A4552524F523E3E30783640
:1027C0003820697320636F6D696E6720746F6F20A6
:1027D0006C6174650A0000000A204672616D652014
:1027E000666F726D617420436865636B203A455271
:1027F000524F523E3E64617461206C656E206C6F76
:102800006E676572207468616E206672616D652006
:102810006C656E0A000000000A204672616D65203A
:10282000666F726D617420436865636B203A455230
:10283000524F523E3E6E6F742066696E642030784F
:1028400031360A00A25301080A204672616D6520E4
:10285000666F726D617420436865636B203A455200
:10286000524F523E3E6E6F742066696E64207468EB
:102870006973204320636F64650A00000A20467272
:10288000616D6520666F726D617420436865636B6E
:10289000203A4552524F523E3E44493A2025327822
:1028A00020697320696E76616C69640A000000001B
:1028B0000A204672616D6520666F726D61742043F7
:1028C0006865636B203A4552524F523E3E43532057
:1028D0004552524F520A00000830002020467261D3
:1028E0006D6520666F726D617420436865636B204F
:1028F0004F4B0A000178A52902D0E52902D007E054
:10290000112070474178FC2902D18178292902D011
:102910000020C04370470949C2780A7002794A70A2
:1029200042798A708279CA70C2790A71027A4A71D0
:10293000427A8A71807AC87112207047360100206D
:10294000F0B5044600201E23012601E05B1E05D3DE
:10295000DF06FF0E3546BD400D42F7D0002A0ED0EF
:10296000082A0AD0102A05D0182A01D1072B06D32D
:102970000120F0BD082BFBD201E0102BF8D2236818
:102980005961236899681824A14311439960F0BDE7
:1029900010B5040012D0607F002803D120772046B4
:1029A00000F034F8022060772079002808D0204613
:1029B000E268A168FFF7C4FF002809D0012010BD1C
:1029C000216811484861206881681822914381601C
:1029D0006079002814D0206921680861216888681E
:1029E0006022904362691043886021688868802271
:1029F0009043A2691043886001206077002010BDD9
:102A00000020C043E8E70000B71DC10408B5006816
:102A10000549884207D10548026B81140A430263C5
:102A2000006B0840009008BD0030024000100240DA
:102A300030B5014620314A790023022A04D004220D
:102A4000C2630B71012030BD026814680E25AC43CF
:102A5000146002681468640864001460446C1C22EA
:102A6000144001221546006CA54045604A71184685
:102A70000B7130BD70B50024014620314A79022A1D
:102A800003D00421C163012418E0026813680E25F5
:102A9000AB431360026813685B085B001360436C10
:102AA0001C221340012215469D40036C5D604A7153
:102AB00000220A71816B002900D08847204670BD32
:102AC000C06B7047F0B4016C0D6801680C68466C0F
:102AD0001C2304221E401746B7402F420ED0670722
:102AE0000CD50C68A40602D40C6894430C60416CAD
:102AF00019408A40016C4A60016B1AE00227B74016
:102B000002462F402032002F17D0A70715D50C689A
:102B1000A40605D40C680A25AC430C600121517150
:102B2000446C02211C40036CA140596000211171CA
:102B3000C16A002918D0F0BC08470827B7402F42C7
:102B400012D0240710D50C680E25AC430C60446CE1
:102B500001211C400B46A340046C6360C1635171AA
:102B600000211171416BE4E7F0BC704770B50400BF
:102B70003CD01F48256814212818FDF7B9FA8000B9
:102B800060641C48206402212046203002464171C6
:102B900029681948E3680140A068666918432369F9
:102BA00033431843A3691843E3691843236A18435E
:102BB000084328600121A0688903884210D00D488D
:102BC0008030836A656C1C210D400F26AE40B343F4
:102BD0008362656C63680D40816AAB400B4383621E
:102BE0000020E06301215171107170BD012070BDA2
:102BF000F8FFFDBF000002400F80FFFFF8B504465C
:102C00008C46203001790025012909D00126067162
:102C100041790027012905D0077102252846F8BD12
:102C20000220F8BD02214171E7632068016849086C
:102C30004900016061462046FFF732FA206B002808
:102C40002068016801D00E2205E004229143016052
:102C5000206801680A22114301602068016831433D
:102C60000160DBE770B5044600F0D8F80546601C4B
:102C700000D0641C00F0D2F8401BA042FAD370BD13
:102C8000F8B500230124A7E027469F403A4070D0C2
:102C90004D68022D01D0122D14D1DD08AD002D1884
:102CA00000952D6A5E07AC46F50E0F26AE46AE4087
:102CB0006546B543AC460E697546AE4065462E4343
:102CC000009D2E624D68012D05D0022D03D0112DDF
:102CD00001D0122D16D185680326AC465D00AE46A4
:102CE000AE406546B543AC46CE687546AE406546D7
:102CF0002E43866046680D79BE43ED06ED0F9D407C
:102D00003543456006685F000325BD40AE46AE43CF
:102D10000D79B446AE07B60FBE4065462E43066039
:102D2000C6687546AE438D68BD403543C5604D6885
:102D3000ED0050D52B4D6E6B26436E639E082A4DD9
:102D4000B6007519AC46AD689E07360F0F27B74021
:102D5000BD4305273F07B84201D100271AE0234FA2
:102D6000B84201D1012715E0214FB84202D1022714
:102D700010E030E01F4FB84201D103270AE01E4F98
:102D8000B84201D1042705E01C4FB84201D1052704
:102D900000E00627B7402F436546AF60184D2E6808
:102DA0004F689643FF0300D516432E606E684F6848
:102DB0009643BF0300D516436E60AE684F689643D6
:102DC000FF0200D51643AE60EE684F689643BF021F
:102DD00000D51643EE605B1C0A681546DD4000D046
:102DE00052E7F8BD0010024000000140000400500E
:102DF00000080050000C005000100050001C005053
:102E0000000401400069084000D001207047002AFA
:102E100001D08161704781627047000001480068FD
:102E2000704700006801002002480168491C0160E9
:102E3000704700006801002010B5084800240168B0
:102E4000402211430160204600F00AF8002801D01A
:102E5000012401E000F01CF8204610BD00200240D3
:102E600070B5054609487D210024C9000068FDF7BA
:102E70003FF900F0A9FE002801D0012404E000225F
:102E80002946501E00F01AF8204670BD6C01002043
:102E90000448416B012211434163816B02041143D9
:102EA0008163704700100240C106C90E01208840AE
:102EB000014908607047000000E100E010B501F032
:102EC0007FFD10BDF8B504460078594D800672D5D7
:102ED000574E0027403EB06BC00004D4B06BA9052C
:102EE0000843B063012753480168C90511D401683C
:102EF000821511430160FFF791FF009005E0FFF795
:102F00008DFF0099401A642837D84A480068C005E8
:102F1000F5D532680321090560680A4001409142F5
:102F200008D08103890F032904D13168890301D5B1
:102F30000120F8BD2A69032109040A4022D0084073
:102F400090421FD0207880061CD528692A698843C2
:102F50000121C9040A432A612A698A432A61286136
:102F6000C0050FD5FFF75AFF009008E0FFF756FFA6
:102F70000099411A3048814201D90320F8BD2869DF
:102F80008005F3D561688803800F032805D1326876
:102F90000005824301400A433260286903226168C8
:102FA0001204114008432861002F04D0B16B0120A6
:102FB00000078143B1632078C00705D0E868A168A5
:102FC000800880000843E8602078800705D5E8681D
:102FD0000C218843E1680843E8602078400706D563
:102FE000E86803218902884321690843E860207862
:102FF000000706D5E868032109038843616908438F
:10300000E8602088C00506D5E868032109048843E4
:10301000A1690843E8602078000606D5E868032126
:1030200089048843E1690843E8600020F8BD000096
:10303000401002400070004088130000F8B50E46B2
:1030400005007DD053480068C007C00FB0420AD2C7
:103050005048016849084900314301600068C007D1
:10306000C00FB04271D128784B4C800705D5E0687D
:10307000F0218843A9680843E0602878C00752D04F
:103080006868022817D0032818D02168012818D0B2
:103090008905002959DAE168890889000143E1605E
:1030A000FFF7BCFE69680746022912D003291CD02D
:1030B000012926D033E021688903EAE721688901E4
:1030C000E7E74907E5E7FFF7A9FEC11B334881425F
:1030D00023D8E0680007800F0228F4D123E0FFF72F
:1030E0009DFEC11B2D48814217D8E0680007800F64
:1030F0000328F4D117E0FFF791FEC11B2748814256
:103100000BD8E0680007800F0128F4D10BE0FFF72F
:1031100085FEC11B2148814201D90320F8BDE0682A
:103120000007800FF3D11B480168C907C90FB142DE
:103130000DD901684908490031430160006800E089
:1031400003E0C007C00FB04201D00120F8BD2878CD
:10315000400706D5E068072109028843E96808436B
:10316000E0602878000707D5E0680721C902884396
:103170002969C9000843E06000F036F8E168084AB0
:103180000906090F515CC840064908600020FFF796
:1031900067FEF8BD002002400010024088130000C6
:1031A000CC5401086C010020044805490068C96836
:1031B000044A4905490F515CC84070476C01002022
:1031C00000100240E5540108044805490068C96838
:1031D000044A8904490F515CC84070476C010020C3
:1031E00000100240E554010810B5184AD1680C20BF
:1031F000084004280BD0082810D00C2810D05068A4
:103200000004410F0120C003491C884010BD106814
:10321000C00601D50E4810BD0E4810BD0E4810BDA9
:1032200088020E4B000F185C0902D368890F491CF5
:10323000DB0301D5084A05E01268D20601D5044A2D
:1032400000E0044A5043FCF753FF10BD0010024059
:1032500000093D000024F40000127A00DC5401084B
:10326000FEB505007ED0FE4CE7680C20E6680740FE
:103270000120000406402878C00747D0082F05D059
:103280000C2F0AD101200004864206D12068800359
:103290003CD568680028E5D038E001206968000462
:1032A000814203D121680143216011E005230122FD
:1032B0001B0492049942216802D111432160F1E775
:1032C0008143216021680140009120689043206083
:1032D000686800280DD0FFF7A1FD009005E0FFF71A
:1032E0009DFD0099401A64287ED820688003F6D599
:1032F0000CE0FFF793FD009005E0FFF78FFD0099CC
:10330000401A6428F0D820688003F6D42878800713
:103310005CD5E868810604D5226820210A43226032
:1033200088430923042F0DD00C2F01D1002E09D082
:1033300000283BD02168994301432160FFF76EFDCF
:10334000064627E02168490701D500288AD0616830
:103350001F22120291432A691202114361602168FF
:10336000994300E08EE101432160FFF73DFFE168F2
:1033700009060A0FBB49895CC840BB4908600020A8
:10338000FFF76EFD002873D120E0FFF747FD801B9B
:103390000228A9D820684007F7D560681F210902D4
:1033A000884329690902084360600FE020684008EB
:1033B00040002060FFF732FD064604E0FFF72EFDD7
:1033C000801B022890D820684007F7D42878C006D0
:1033D00060D5002F0DD0A86900284AD02068FF21B1
:1033E00001310843206000E0C4E0FFF717FD064606
:1033F0002CE02068800502D5A8690028A6D0606866
:10340000072149038843296A084360606068297F6F
:103410000002000A090608436060286A410B012087
:10342000C003491C8840E16809060A0F8D49895C80
:10343000C8408D4908600020FFF712FD002817D111
:1034400028E0FFF7EBFC801B0228A2D8206880054B
:10345000F7D56068072149038843296A08436060FB
:103460006068297F0002000A09060843606011E0D5
:10347000E1E02168FF20013081432160FFF7CEFCAD
:10348000064604E0FFF7CAFC801B022872D82068B9
:103490008005F7D42878754E000724D56869002880
:1034A000306910D0012108433061FFF7B7FC00906C
:1034B00005E0FFF7B3FC0099401A02285AD830699A
:1034C0008007F6D50FE0400840003061FFF7A6FC0A
:1034D000009005E0FFF7A2FC0099401A022849D8A5
:1034E00030698007F6D42878400765D5002002901F
:1034F000A06BC00006D4A06B012109070843A0639C
:10350000012002905A480168C90511D4016882154A
:1035100011430160FFF782FC009005E0FFF77EFC9D
:103520000099401A642825D851480068C005F5D58F
:10353000FF20AA680130824203D131690143316121
:1035400011E001218902002A07D005231B029A42BB
:1035500003D132690A433261EFE732698243326153
:10356000306988433061A86800280FD0FFF756FC07
:10357000009007E05EE0FFF751FC0099411A3D48DA
:10358000814257D830698005F5D50DE0FFF746FC3C
:10359000009006E0FFF742FC0099411A354881424D
:1035A00048D830698005F5D40298002804D0A16B72
:1035B000012000078143A163686A002864D00C2FB2
:1035C0003ED0012636060228206805D0B043206090
:1035D000FFF724FC05462FE0B0432060FFF71EFCF8
:1035E000074604E0FFF71AFCC01B022822D8206817
:1035F0008001F7D4E96AA86AE2680843296BFD23D1
:103600001B049A4311430843E06020683043206064
:10361000FFF704FC054604E0FFF700FC401B02280E
:1036200008D820688001F7D52EE0FFF7F7FB401B94
:10363000022801D90320FEBD20688001F5D423E0D3
:103640000128F8D0E06801210904AA6A01409142EA
:1036500018D10F218904EA6A0140914212D10BE08E
:1036600000100240CC5401086C01002040100240C0
:103670000070004088130000032189050840296B71
:10368000884201D00120FEBD0020FEBDF7B50546F1
:1036900004462035287882B0012814D001202870F3
:1036A000022068702168CA2048622168532048625D
:1036B0002068806800264005FF27002812DAFFF7FF
:1036C000ADFB00900AE0022005B0F0BDFFF7A6FBBD
:1036D0000099411A7D20C000814215D82068C06839
:1036E0004007F3D4206881680122920291438160EF
:1036F000FFF794FB00900DE0FFF790FB0099411A53
:103700007D20C000814205D920684762032068708F
:103710002E70D9E72068C0684007EDD52068816821
:10372000C908C900816020688168049A11438160DA
:103730002168039848612068816801229202114340
:10374000816020684762012068702E700020BBE70E
:1037500010B500680B464068C021C9430140000213
:10376000000ECC04D870E40E5C708C06A40E090424
:10377000490F9C701970002A0AD101F04CFAD870D8
:10378000587801F048FA5870987801F044FA987027
:10379000002010BD30B50B460168896A5960016888
:1037A00009694904490C9960006804680F4821467A
:1037B000014088024D04800E18706D0E49065D7040
:1037C000490E99706102490E40242140D970002AA7
:1037D0000AD101F020FA1870587801F01CFA5870DC
:1037E000987801F018FA9870002030BD7F7F7F0034
:1037F000F8B5040050D0254620356878002803D15C
:103800002870204600F052F8022068702168CA2013
:103810004862216853204862204601F004FAFF26DE
:1038200004270028206802D046626F7034E0816867
:103830001D4A11408160216888686268A36910434D
:1038400022691A43104388602168E0680861206893
:10385000016922891204114301612068C168802234
:103860009143C1602068C16C89088900C164E16925
:10387000606901432068C26C1143C164206880689C
:1038800080060BD4204600F021F8002806D02068DE
:1038900046626F70002028700120F8BD20684662E3
:1038A000012068700020F8BDBFFF8FFF0068054948
:1038B000884205D104480169012292041143016143
:1038C00070470000002800404010024070B50446D8
:1038D0000068C168A0229143C160FFF79FFA7D266E
:1038E0000546F60006E0FFF799FA401BB04201D901
:1038F000032070BD2068C0688006F4D5002070BD2C
:1039000070B5040007D0002625464035A662687CC5
:10391000002802D005E0012070BD2E74204600F082
:103920002FF80220687420680168402291430160EA
:10393000A168606822690843E1681143084361692E
:1039400001220843A169520211400843E16908437A
:10395000216A0843A16A084321680860A06904211C
:10396000000C0840616A0843216848602068C1690A
:1039700092009143C161666501206874002070BDAA
:1039800010B586B0044614216846FCF761FC104966
:103990002068884219D10F48416B8214114341635A
:1039A000C16A01221143C162C06A00211040059022
:1039B000E0200090022001900320039002910491E6
:1039C000052069460007FFF75BF906B010BD00004F
:1039D0000030014000100240FFB5044683B00120D2
:1039E00001900020264640360090307C0C9F1D46FA
:1039F00001280FD001203074FFF710FA0290707C7C
:103A0000616801280DD0CA1FFD3A08D1A1680029BC
:103A100005D102E0022007B0F0BD042801D0022049
:103A2000C3E00498002828D00598002825D0002D50
:103A300023D0707C042801D00520707400206065BC
:103A40000599A163E587A58704992163E586A58685
:103A50002064606420680168490603D4016840223C
:103A6000114301600121E068C9028842606848D1C1
:103A7000002804D0012D02D03CE0012095E0206B0D
:103A800021680088C860206B801C2063E08E401E87
:103A9000E0862FE020688168890710D5E18E002933
:103AA0000DD0019901290AD1216B0988C160206BD1
:103AB000801C2063E08E401EE0860020019020687C
:103AC0008168C9070DD0E18F00290AD0C068A16BB9
:103AD0000880A06B801CA063E08F401EE08701205F
:103AE0000190FFF79BF901460298081AB84201D3EA
:103AF000781C59D1E08E0028CCD1E08F0028C9D1A4
:103B000046E0002801D0012D3CD1206B21680078CF
:103B10000873206B401C2063E08E401EE08631E07D
:103B200020688168890710D5E18E00290DD00199A0
:103B300001290AD1216B09780173206B401C206395
:103B4000E08E401EE0860020019020688168C90751
:103B50000DD0E18F00290AD0C068A16B0870A06B5E
:103B6000401CA063E08F401EE08701200190FFF71A
:103B700055F90299401AB84202D3781C02D013E0DA
:103B8000002F11D0E08E0028CAD1E08F0028C7D1C5
:103B900039462046029A01F0D9F8002807D00120C2
:103BA00000902020606509E00320009006E0A068F6
:103BB000002803D12068C1688068019001207074DA
:103BC00000203074009826E7094910B5401E88424D
:103BD00001D9012010BD074C60610321081F00F0CE
:103BE000EFFE0020A06107202061002010BD000032
:103BF000FFFFFF0000E000E0F0B502462032137E38
:103C0000012B15D0012717760223537605686C68BF
:103C1000AB687026B4430E68496826438024A343EA
:103C200019436E6000688160577600201076F0BD01
:103C30000220F0BD70B5040005D025462035687E11
:103C4000002802D006E0012070BD00202876204622
:103C500000F00AF802206876211D206802F0AAFB15
:103C600001206876002070BD10B500680121890729
:103C7000884214D10A48816B0122114381630022DA
:103C800011460F20FFF71AF90F20FFF70DF905492C
:103C900001200968C0430861024800F005F810BD22
:103CA00000100240343600200268D36801210B4323
:103CB000D360006882685207520F062A02D0026859
:103CC0000A43026000207047F8B5054604462035D7
:103CD000287E012817D001262E76022068762268D9
:103CE00090687727FF23B8431B02984390600A68C7
:103CF000502A31D00EDC202A4BD006DC002A48D0D6
:103D0000102A3AD145E00220F8BD302A41D0402A9D
:103D100033D136E0602A27D0702A12D00120000368
:103D2000121A2AD0824228D1CB684A688968206852
:103D300002F074FB206881680122920311438160C4
:103D40001BE0CB684A688968206802F067FB21683D
:103D500088683843886010E0CA684968206802F0C3
:103D600070FB5021206806E0CA684968206802F0AC
:103D700079FB6021206802F05CFB6E7600202876DB
:103D8000F8BDCA684968206802F05BFB40212068E2
:103D9000F1E711462068EEE7704770B50446006809
:103DA00001690025C9438907002915DBC168C9439A
:103DB000890711D4E91E01610120207620688069FD
:103DC0008007204602D0FFF7E7FF04E000F078F814
:103DD000204600F076F8257620680169C943490736
:103DE00017D4C168C943490713D40421C9430161E9
:103DF00002202076206880698005800F204602D04E
:103E0000FFF7CAFF04E000F05BF8204600F059F825
:103E1000257620680169C943090716D4C168C943DA
:103E2000090712D40821C9430161042020762068C3
:103E3000C0698007204602D0FFF7AEFF04E000F023
:103E40003FF8204600F03DF8257620680169C94317
:103E5000C90617D4C168C943C90613D41021C94380
:103E60000161082020762068C0698005800F204607
:103E700002D0FFF791FF04E000F022F8204600F0A6
:103E800020F8257620680169C943C90708D1C168AF
:103E9000C943C90704D1891E0161204600F012F808
:103EA00020680169C943490609D4C168C943490664
:103EB00005D44021C9430161204600F04BF870BD94
:103EC00070477047F8B51E490025884237D11D4814
:103ED0007D264078F6001C4C002811D06660A16851
:103EE00060680027814214DB207800280BD0002274
:103EF000FF21013115482270002A06D0002205E07A
:103F0000C8206060EBE70122F2E70122FEF77FFFA5
:103F1000A760A068401CA060E068401CE060B04260
:103F20000DDB0B490E2068434218507B002801D05E
:103F3000401E50736D1CEDB2142DF3D3E760F8BD35
:103F4000343600200C0100205401002000040050F1
:103F50006C3D00207047704770B5416F0446856F17
:103F60000068826810261206002A14DA212912D16C
:103F70008168802291438160A06E002808D0FEF7FE
:103F800057FD002804D0A06EFEF79AFD20281DD012
:103F9000204602F001FC20688168490614D5222DD4
:103FA00012D18168402291438160E06E002808D0E0
:103FB000FEF73EFD002804D0E06EFEF781FD2028CC
:103FC00004D0204602F0D8FB002070BDE667032035
:103FD00070BD7047F8B502680446D06911689368EF
:103FE00005072D0F5BD0DD07ED0FFF2621360E40B4
:103FF0002E4367D0C60706D0CE0504D5012616622B
:10400000E26F3243E267870702220426002F06DAB6
:10401000DF0704D027683A62E76F3743E76747074F
:1040200006D5DB0704D023681E62E36F1343E36702
:10403000020709D520220A402A4305D02368082216
:104040001A62E36F1343E367E26F002A2FD0800602
:1040500006D5880604D5216E002901D02046884760
:10406000E06F21688968490601D4000724D52046FD
:1040700002F082FB20688168490619D581684022D8
:1040800091438160E06E002812D020498163E06E88
:10409000FEF7F0FC00280AD0E06E816B06E0850692
:1040A00010D58D060ED5216E1CE020468847F8BD40
:1040B0002046FFF78EFFF8BD2046FFF78AFF00205D
:1040C000E067F8BDC50208D55B0206D501200005F2
:1040D00010622046FFF73FFFF8BD030605D50B062B
:1040E00003D5616E0029E0D1F8BD4006FCD5480635
:1040F000FAD51368204640218B4313602021616765
:104100000021616600F09DF9F8BD0000D566000849
:1041100010B5040003D0606F002802D007E0012032
:1041200010BD002170200155204600F027F8242002
:10413000606720680168490849000160204602F074
:1041400033FB0128ECD0606A002802D0204602F040
:104150002BFA206841680922D2029143416020680D
:1041600081682A22914381602068016801221143FD
:104170000160204602F07EFA10BD0000F0B587B065
:10418000054614216846FCF763F8464F2B684648FD
:104190000121022203260024BB422FD1436B8F034F
:1041A0003B434363C36A0B43C362C06A6B46084028
:1041B0000590700255C3042004900520694600074D
:1041C000FEF75EFD3A4F3948BC60FC6041C7FC60B9
:1041D0003C617C618020BC61B8603548083FFEF7D7
:1041E000C5FC002801D0FEF767F9EF6600221146F2
:1041F0001B20BD62FEF762FE1B204FE02D4FBB422D
:104200004ED1836B01277F043B438363C36A0B4317
:10421000C362C06A6B46C007C00F05900C2055C32F
:1042200004260520694600070496FEF729FD204F65
:104230001E484837BC602830FC6041C7FC603C61C8
:104240007C618020BC61B86038460838083FFEF7C2
:104250008DFC002801D0FEF72FF9EF66BD621348F0
:10426000134F1430903741C710207C603860FC60D9
:104270003C617C618020BC61B86038460838083FEA
:10428000FEF774FC002801D0FEF716F9AF66002295
:1042900011461C20BD62FEF711FE1C20FEF704FE35
:1042A00007B0F0BD0038014000100240300002406D
:1042B000743B002000440040F8B50446806F20287D
:1042C0004DD100290BD0002A09D00123A0681B037F
:1042D000984206D12069002803D1C80701D00120E7
:1042E000F8BD25466035287C012838D00120287487
:1042F0005820616502530026E6672220A067E06E21
:10430000002819D01749C162E16E17480863E16EB1
:1043100016484863E06E13468663676D21683A4627
:104320002431E06EFEF76AFC002805D01020E0671B
:104330002E7420206067D2E72E7420680168FF2267
:1043400001321143016020688168012211438160BC
:10435000206881684022114381600020F8BD02205E
:10436000F8BD0000316700086F670008E9660008C3
:1043700070477047FFB50446406F83B017460D463F
:1043800020285CD1002D0AD0002F08D0A168C001E0
:10439000814207D12069002804D1E80702D001201A
:1043A00007B0F0BD204660300290007C012846D066
:1043B0000298012101740020E06721206067FEF768
:1043C0002DFD264640360190378277820120A16874
:1043D0000003814202D12069002802D02F46002527
:1043E00011E000270FE000228021204602F0FAFAB7
:1043F000002815D1002F15D02168387888627F1CDD
:10440000708A401E7082708A019B00280698009076
:10441000E9D100224021204602F0E4FA002808D029
:104420000320BDE728882168C005C00D8862AD1C47
:10443000E6E720206067029900200874B0E70220B8
:10444000AEE77047FEE7000070B50523FF251B07A8
:1044500001350F4C01280FD0012229461846FEF7DE
:10446000D6FC012229462046FEF7D1FC012202217A
:104470002046FEF7CCFC70BD002229461846FEF708
:10448000C6FC002229462046FEF7C1FC0022EEE7CA
:1044900000040050F0B50A89835C1C04431CD35C03
:1044A0001B02E418831CD25CA31864243A4A6343B9
:1044B0003A4C13601B193A4CA34262D20B89C61CBA
:1044C0009B5D17469B09203F01240025002B04D04B
:1044D000012B04D0022B04D005E03D7103E03C71B8
:1044E00001E002233B710B899B5D9B0601D41023E5
:1044F00000E0202393730B899B5DDB06DB0E537377
:104500001F2B3ED20E89031DF65C360601D594762C
:1045100000E095760E89F65C7606760F771E042FFE
:104520002FD216750E89F35C1B071B0FDE1F062E9C
:1045300027D226469B1F9E40166115710F89431D89
:104540001E46FB5C04273B4201D0D47600E0D576C2
:104550000B899E5D0323B707BF0F022F13D03607C9
:10456000360F012E10D0D373D3730989831DCB5C12
:10457000C01D085C1B0218180004000C06D004289B
:1045800004D20120F0BD0224D473EDE71083054866
:1045900005730020F0BD0000E82F0020C0A948E40A
:1045A00081F0FA02680600200FB400B5C5B0FF2202
:1045B00011324AA96846FBF732FE46A80FC805F03B
:1045C0006DFD0006000E07D000210420FDF766FBFC
:1045D00045B008BC04B0184700210620F6E70000EB
:1045E000F0B50A89835C1C04431CD35C1B02E418ED
:1045F000831CD25CA3186424474A6343474C13606E
:104600001B19474CA34272D20B89841D1D5DC41C2B
:104610001C5D461D24062C19051D5D5D9B5D2D044A
:104620001B02EB18E41801230025002C0AD013719B
:104630000C89C61DA45DA40906D0012C06D0022C4D
:1046400006D007E01571F3E7157103E0137101E07F
:10465000022414710C89A45DA7061024002F01DB2D
:10466000947301E02027977394730C89A45DE4068A
:10467000E40E547300D555730D2414571E2C01DD20
:104680001E2454730E8904460934365D360601D45F
:10469000957600E093760E89365D7606760F771E66
:1046A000042F32D216750E89345D2407240FA41FFF
:1046B000072C2AD21E46A64016610C8906460A36E9
:1046C000A45D94830F89741C26463C5D04273C42FC
:1046D000144F01D0FB7600E0FD760C89A45DA407A1
:1046E000A40F012C04D0022C03D0032301E00CE022
:1046F0000223D373034609890C33CB5C0D30085C6D
:104700001B02181880B2042801D20020F0BD1083CB
:1047100015730120F0BD0000C82F0020C0A948E497
:1047200081F0FA02E82F002010B50289FF234168CA
:10473000F5330248FFF71EFE10BD0000F43A0020DA
:1047400010B50948074901600021017141714161BB
:10475000816101210162FEF71BF9002801D0FDF7FC
:10476000ABFE10BD003002409435002008B50C4867
:10477000016B012211430163006B10400022009085
:1047800011460A20FEF79AFB0A20FEF78DFB002255
:1047900011460B20FEF792FB0B20FEF785FB08BDB0
:1047A00000100240F0B587B014216846FBF750FDB9
:1047B0003548C26A04210A43C262C26A0A400592AD
:1047C000C26A80210A43C262C26A0A400592C16A73
:1047D00001252943C162C16A29400591C16A0226A7
:1047E0003143C162C06A0022304005902946274803
:1047F000FEF70DFB012202212448FEF708FBFF21F2
:104800000520002211310007FEF701FBFF210022E5
:1048100004311F48FEF7FBFA68030024009001945E
:10482000694602941B48FEF72BFA03270294694657
:104830001648009701950394FEF722FA052001948B
:104840006946000700960294FEF71AFAFF2011301D
:104850000090052001956946029503940007FEF734
:104860000FFA029469460A48009701950394FEF7EF
:1048700007FA2802009001956946029503940448BE
:10488000FEF7FEF907B0F0BD00100240001C00501A
:10489000000400500008005010B50F480D49016099
:1048A0007F2282600021416001614161FF228161BC
:1048B000C260C161FEF79CFF002801D0FDF7FCFD3E
:1048C000002211460448FEF7E1FE002801D0FDF762
:1048D000F3FD10BD00280040B835002010B50E488B
:1048E0000C490160FF210531416000218160C160F8
:1048F00001614161C1610122016252024162826132
:1049000081620721C162FEF7FBFF002801D0FDF79D
:10491000D3FD10BD00300140DC35002010B586B05D
:1049200000240094012116480194029403940494F5
:104930008907059401602021846041607D21046124
:10494000C9004461C160FFF775F9002801D0FDF787
:10495000B3FD01200003009069460948FFF7B4F950
:10496000002801D0FDF7A8FD049404A9044805948B
:10497000FFF742F9002801D0FDF79EFD06B010BDFB
:104980003436002010B50C480A490160E1210903C2
:10499000416000218160C16001618161C1610C22BF
:1049A000016242614162FFF7B3FB002801D0FDF7CD
:1049B00083FD10BD00440040F43A00207047000021
:1049C0008307FF22DB0E9A408907090E99400028D1
:1049D0000BDA0007000F0838830808489B001818F6
:1049E000C36993430B43C3617047830804489B002A
:1049F0001B181868904308431860704700ED00E0EA
:104A000000E400E030B5B3B00C460546C821684666
:104A1000FBF71EFC6A462146284600F033F80228C0
:104A200010D004DC002807D0012804D106E00328B8
:104A30000DD0242814D0002033B030BD0A49012005
:104A400008700FE00949684600F04AF80AE0684635
:104A5000017806480A38016005A002F0E7F901E094
:104A600001F080FB0120E7E7110100201231002056
:104A700043545F53656E645F706F7765723A256467
:104A80000A00000070B50546007816460C46EE2870
:104A900010D10122611E681C00F04CF800280AD0D9
:104AA0000021E41E03E0681880787054491CA1427C
:104AB000F9DB687870BD02A002F0B8F9002070BD83
:104AC000637320657272207265636275665B305D28
:104AD00020616464203A202578200D0A000000003F
:104AE00070B50D460022815CA954521C082AFADBDD
:104AF00007A002F09BF90024295D0BA002F096F9B3
:104B0000641C082CF8DB0AA002F090F9012070BDAB
:104B100045554920736574696E67207375636365D5
:104B20007373210D0A0000002530322000000000C0
:104B30000D0A000030B5002305464C1E1846002A19
:104B400006D0012A0BD030BDE95C0818C0B25B1C4E
:104B5000A342F9DB30BDEA5C1018C0B25B1CA34273
:104B6000F9DB69182039C97F814201D1012030BDAC
:104B7000002030BD7047FFB514460121052081B0EB
:104B80001D460022C9020007FEF741F901206870A6
:104B900000276782029E761E2EE022460299019827
:104BA000FDF704FD0146FE2829D0FF2924D0002965
:104BB00004D02A462046FDF7EEFA1AE06078012874
:104BC00006D002280AD003280ED0042811D120E0F4
:104BD0002A462146019800F0ADFA0AE02A4621460D
:104BE000019800F01BF904E02A462146019800F0E4
:104BF00085FE2846FFF798FD608AB042CDDB012292
:104C00000520D1020007FEF702F96F70012005B000
:104C1000F0BD0121CDE701090A2200075143000F31
:104C20004018C0B2704770B504460068C1684906B4
:104C300013D40021C943C160FEF7F0F87D26054674
:104C4000F60006E0FEF7EAF8401BB04201D9032067
:104C500070BD2068C0684006F4D5002070BD00001B
:104C600000B58BB0002204A91248FEF793FD002284
:104C700009A91048FEF76CFD002005210190029063
:104C8000009103901423092218210BA002F0CEF802
:104C90006846837C427C017C08A8007903936B46BC
:104CA00007C308A883794279C17910A002F0BEF841
:104CB0000BB000BDB835002052544320536574201A
:104CC00054696D653A253032782D253032782D259E
:104CD000303278202530327820253032783A25302D
:104CE00032783A253032780D0A00000052544320C1
:104CF00054696D65206E6F773A253032642D25300A
:104D000032642D2530326420253032642025303243
:104D1000643A253032643A253032640D0A000000CE
:104D200010B50249022004F071F910BD1C320020B8
:104D300005498A689207FCD5C8608868C007FCD01E
:104D4000C868C0B2704700000030014038B5044662
:104D50004068FF2305332025984204D100920B467A
:104D60000022802107E05120005D05280DD100922E
:104D70000B4600220121204600F009F8002804D04B
:104D8000606D28436065032038BD002038BDF8B54C
:104D90001D4617460E46044609E0681C07D0FEF77C
:104DA0003DF80699401AA8420BD2002D09D0206880
:104DB0008168304688432ED00020B842EDD10020D3
:104DC000F8BD20684168E022914341606068C11FDE
:104DD000FD390CD10121A068C903884202D04911D4
:104DE000884204D12068016840229143016001207B
:104DF000A16A4003814207D121680A6882430A60A0
:104E000021680A6802430A6001204034607400206F
:104E100020740320F8BD0120CFE77047F7B50546A1
:104E20000198144602780027012166680C2A78D080
:104E30000ADCBB48130002F04AF80C206666662BB9
:104E40002D3446616666A767B648122A6AD007DC29
:104E50000D3A130002F03BF80557E6E5E4E358008D
:104E6000152A7CD004DC132A7AD0142A4CD11EE1F6
:104E7000162A76D0FF2A47D12AE12020F0716268F5
:104E800004251572606841726168032088723CE0F5
:104E9000012502E0A248012514300078002872D0D4
:104EA000FDE09F48032540686421FBF721F9000CD1
:104EB000F0719B4864214068FBF71AF96168000AA9
:104EC0000872974813E0964803251430406864211F
:104ED000FBF70EF9000CF071914864211430406822
:104EE000FBF706F96168000A08728D4814304068C3
:104EF0006421FBF7FDF86168487206E001980089BB
:104F0000285C07280FD9012501276168FE20087059
:104F10006168487068206168002F88707ED0922098
:104F2000DAE034E0BDE0F07142017D480725283029
:104F3000835C002B16D0636816181972616870784C
:104F40004872706800280FDA40426421FBF7E6F8E7
:104F500062680114917280231943626809E0A9E034
:104F6000A2E0ADE00021E6E76421FBF7D7F8626834
:104F70000114917262680112D172616808736168EC
:104F8000307B4873C1E798E0012567487EE06748B9
:104F9000082500686421FBF7ABF8000CF07163484A
:104FA00064210068FBF7A4F86168000A08725F4892
:104FB00064210068FBF79CF8616848726068002112
:104FC00081725A48626800798007000E9072574AD1
:104FD000927B102A626801D02023184390725348B4
:104FE0006368427B9E7A16439E726268D172827EAB
:104FF000002A01D0802300E000236268D372027D82
:1050000066681207120E1343F3720669102E18D049
:105010000CDC022E0FD0042E0FD004E05BE03AE04F
:1050200036E031E02DE0082E10D108E0202E0AD025
:10503000402E0BD109E0072208E0082206E00922F1
:1050400004E00A2202E00B2200E00C22666813430F
:10505000F37263681973C17B012904D0022904D05B
:10506000032905D103E0022202E0012200E0002230
:1050700061680A73008B6268010A51736168887302
:1050800043E70125C07919E029480125007815E09A
:105090000125007801E04078012500280DD0F1714C
:1050A00033E70125C07809E001250079F5E70125FE
:1050B0004079F2E701258079EFE70020F07124E7DD
:1050C000018B0225090AF1716168007E08721CE7F4
:1050D00001258078F2E782206168C87001986168D4
:1050E000007808716168280A48716068E91D857157
:1050F000626800205054022006E06268535C165C2F
:105100009B19401C535480B28842F6D3284608307D
:10511000626816211154093525810120FEBD000069
:10512000A02E0020682E00200C010020E82F002077
:1051300064010020FEB516460C4600250978421C85
:105140002F4600920C2977D00BDC821C01920B00B9
:1051500001F0BDFE0CF42C313A414A567497F4F438
:105160009D1F9B4A122968D007DC0D390B0001F006
:10517000AEFE05E5B1B5BCC5100015297CD004DC38
:1051800013297AD0142904D1D1E0162976D0FF2929
:1051900075D002257168FE2008707168487068201B
:1051A0007168002D88706BD09120F2E006F0D8FE77
:1051B00001F042F804E006F0D3FE002001F01AF8F6
:1051C000844807704770E5E701F0E0F88249012064
:1051D00008704870EFE72189405C002802D0012068
:1051E0007E4980E07D4809E02189405C002803D0A9
:1051F0007A490120143176E0784814300770C9E705
:105200002189405C02040098085C00021218019891
:10521000085C6421101848437149421871498A4258
:1052200000D30125FBF75CFA00226F4BFBF78AF8ED
:10523000FBF7B6FA69491DE047E06BE02189405C65
:1052400002040098085C000212180198085C6421AE
:10525000101848436249421862498A4200D3012526
:10526000FBF73EFA0022604BFBF76CF8FBF798FA6D
:105270005A49143148608DE763E04FE06FE07FE00A
:1052800086E02146FCF754FD00287DD082E706F039
:1052900067FE5048012101704770544807C800F06C
:1052A000C9FB4C49052348700F70FF2101311B07D2
:1052B000002804D001221846FDF7A9FD6AE7002264
:1052C0001846FDF7A4FD052564E72146FFF7E2F83F
:1052D00005465FE72189405CD0715BE72189405C2E
:1052E000032851D83C49087054E72189405C0028C4
:1052F00002D0012010704DE717704BE72189405C08
:10530000002804D0012050700146BD2024E05770D1
:105310000021FAE72189405CD0703BE72189405C9D
:10532000002802D00120107134E7177132E721897B
:10533000405C002803D0012050712BE724E0577116
:1053400028E72189405C002802D00120907121E7E4
:10535000FF2097710021343004F062FA1AE72189A6
:10536000009B405CC95C000240180A2801D20A2058
:1053700004E001210904884200D3481E906109E736
:105380002189405C010601D5012503E7907001E702
:1053900081207168C87071682078087170684771E1
:1053A0007168012088717068C57170680772022089
:1053B00071680B5C0A7A401CD218C0B20A720828C5
:1053C000F6D37168162048720A2030810120FEBD94
:1053D000682E00200C01002064010020A02E002077
:1053E000C0A948E481F0FA020000E03F1401002067
:1053F000F8B5A049042003F009FE9F4F002838604B
:1054000070D0002202219D48FDF701FD00219C483B
:105410000CE1FF202D30414396480C189948046058
:10542000A668A16900919849628DC978CB0702D01E
:105430006379102B09D08B0702D56379012B04D037
:1054400049076ED5617911296BD1904DFE212970E4
:1054500069706821A9700421E97000212971114641
:1054600010310B0A6B71A9712179E9712169102939
:105470001ED006DC022915D0042915D0082904D134
:1054800014E0202916D0402916D0FF2129726A7213
:10549000227D012A12D0022A12D0032A12D0042A15
:1054A00013D111E00721F1E70821EFE70921EDE72A
:1054B0000A21EBE70B21E9E70C21E7E7052104E0EE
:1054C000062102E0072100E00821A972FF21E0691E
:1054D000C905C84207D309024840FBF728F98021D3
:1054E000084302E0C4E0FBF722F9E872FF21206ADA
:1054F000C905C84206D309024840FBF718F98021C4
:10550000084301E0FBF713F92873FF21606AC9051E
:10551000C84207D309024840FBF709F98021084334
:1055200002E080E0FBF703F96873FF210098C905EA
:10553000C84206D309024840FBF7F9F88021084326
:1055400000E00020A873300EE873300C2874300A95
:105550006874AE7460794B4B102809D00020E87451
:10556000002228756A75AA75172011461E460BE0A1
:10557000208D010AE974F3E7631820331B7B2B5459
:10558000401C491C80B2C9B2638D8B42F4D82A54A6
:10559000022105E06B5CD2B2D218491C2A5489B2B0
:1055A0008142F7D3401C80B21621394C29546078CF
:1055B000002808D004E00A20FDF754FB0F2D02D884
:1055C00060780128F7D033A001F030FC30683F4C00
:1055D000816822683546914203D23DA001F026FC45
:1055E00003E08B1A43A001F021FC2868806820604A
:1055F000FCF7FCFDFBF7A8FA4AA001F017FC002419
:1056000007E000192030017B4AA001F00FFC641C68
:10561000E4B22868418DA142F3D848A001F006FC0D
:1056200047A001F003FC16480168491C01601448BA
:105630003A680168914200DAEBE61348C079002825
:1056400010D001240525E4022D070022214628461A
:10565000FDF7DDFB386800F095F801222146284669
:10566000FDF7D5FB012202210448FDF7D0FB012004
:10567000F8BD0000B80100202C00002000040050FC
:105680002400002020000020682E00201429002083
:10569000083000203E3E3E3E3E3E3E3E3E3E3E3ECA
:1056A0003E3E3E3E3E3E3E3E3E3E3E3E3E3E3E3E1A
:1056B0003E3E3E3E3E3E3E3E3E3E3E3E3E3E3E3E0A
:1056C0003E3E3E3E3E3E0D0A000000000801002026
:1056D00074696D657374616D703A25303130752071
:1056E00074696D657374616D70206572726F720A92
:1056F0000000000074696D657374616D703A253047
:10570000313075206C61737474696D653A25303180
:105710003075206E6F772D6C6173743A253031309F
:10572000750D0A006C6F7261207061796C6F616435
:105730003A0A0000202530325800000020230A00D9
:105740003C3C3C3C3C3C3C3C3C3C3C3C3C3C3C3C99
:105750003C3C3C3C3C3C3C3C3C3C3C3C3C3C3C3C89
:105760003C3C3C3C3C3C3C3C3C3C3C3C3C3C3C3C79
:105770003C3C0D0A0000000010B5FFF739FE012087
:1057800010BD0000F0B58DB0060013D000250FE06D
:10579000FF202D302F463F4B4743FC1860791028DF
:1057A0000AD0112856D03CA001F040FB6D1CEDB290
:1057B000B542EDDB0DB0F0BD3B49D8590860002083
:1057C00008711E204873102088730320C873206955
:1057D0000861207D08750020628D07E021182031C6
:1057E0000B7B31490918401C8B77C0B28242F5D837
:1057F0002D480821828301830021017300F000FC01
:105800002A49C869401CC861089048690990014646
:105810000898FAF76DFCFAF748FFFAF7DFFF0491F2
:105820000690E069FAF7DAFF03910290A069FAF7AF
:10583000D5FF0B460499079116490246608DC95958
:1058400000920491059001931948089A099901F072
:10585000EDFAABE717A001F0E9FA606AFAF7BEFFCC
:1058600004900F46206AFAF7B9FF03910290E069AD
:10587000FAF7B4FF00910890A069FAF7AFFF0B4662
:105880000597024600990898009001910CA001F03C
:10589000CDFA8BE7B80100206E6F204352432044BD
:1058A0006174610D0A00000068060020682E002067
:1058B0009C5D0108435243206261640D0A000000B0
:1058C00020525353493A252B362E316620534E52DF
:1058D0003A252B352E316620286D696E3A252B35F9
:1058E0002E31662C206D61783A252B352E316629B4
:1058F000207061796C6F61643A0A0000F7B54B481B
:105900000E46417884B0144600290FD081780029D2
:105910000ED004206268FE21117062685170682107
:105920006268002891705ED093215DE00520F1E768
:105930003E48012181703146049801F0D5F80028D5
:105940004CD03146049801F0D9F8012815D13178AE
:10595000032905D000F054FB00283DD000203EE094
:1059600071890025029134E0049932894919515C0A
:10597000FF2202320091914201D906202FE02C4AE9
:10598000891E91833189049B1746C9186B1CC95C19
:105990000191002109E03389049A9A186B18D218F2
:1059A00093787A18491C9377C9B2009A9142F2D33E
:1059B000002708E000F024FB002801D0002000E0D0
:1059C00007207F1CFFB201998F42F3D300996D1815
:1059D00002998D42C8D302E0072000E00120134A5B
:1059E0000021917096E783216268D17062683178F6
:1059F0001171626800215171636801229A716268B5
:105A0000D07160680172022061680B5C0A7A401CE8
:105A1000D218C0B20A720828F6D3616816204872FC
:105A20000A202081012007B0F0BD00000C010020F9
:105A300068060020F7B5C34888B0006814460168BE
:105A4000202291430160C0480068016891430160D1
:105A5000012000F0CFFB08984068FAF741FEBB4DEB
:105A600000222B46FAF76EFCFAF79AFE0146B84878
:105A70000160099801914068FAF732FE00222B4636
:105A8000FAF760FCFAF78CFEB24DB349286000903B
:105A9000B348B24A06C0B349B348FAF781FEB34FE0
:105AA000B349012638600E70B2490E60B2490E70DB
:105AB0000199002917D00099002914D0002812D08C
:105AC000AEA001F0B3F906F067FB0146B4A001F007
:105AD000ADF9BE4D00272F70BD486F7000780028CB
